:020000040000FA
:10000000000C002055010000B7010000B1290000DC
:10001000C5290000D9290000012A0000ED290000AF
:10002000000000000000000000000000A9440000E3
:10003000D30100000000000069440000DB01000063
:10004000DF010000E301000000000000E701000004
:1000500000000000EB0100000000000000000000B4
:10006000EF010000F3010000F7010000FB010000B8
:10007000FF01000003020000070200000B02000065
:100080000F0200001302000000000000000000004A
:10009000170200001B02000000000000000000002A
:1000A0001F02000023020000270200002B020000B4
:1000B0002F02000033020000370200003B02000064
:1000C0003F02000043020000470200004B02000014
:1000D0004F0200000000000053020000000000007A
:1000E00057020000000000005B0200005F020000F9
:1000F0000000000063020000000000006702000032
:100100000000000000000000000000006B02000082
:100110006F02000000000000730200007702000080
:10012000000000007B020000000000000000000052
:1001300000000000000000000000000000000000BF
:1001400000000000000000000000000000000000AF
:100150007F020000114C124DAC4209DA216862683E
:10016000A368043BA2BFC858D050FAE70C34F3E7A9
:100170000C4B0D4CA34208DA19685A680020043A67
:10018000A4BF8850FBE70833F4E772B60748084974
:10019000086002F0E3FD02F0CBFB000084020000E7
:1001A000A8020000A8020000C80200000000000031
:1001B00008ED00E0FEE7FFF7FEBF02F0F9BB02F03A
:1001C00001BC02F009BC02F01BBC02F00FBC04F041
:1001D0006BB9FFF7FEBF04F047B9FFF7FEBFFFF7AB
:1001E000FEBFFFF7FEBFFFF7FEBFFFF7FEBFFFF743
:1001F000FEBFFFF7FEBFFFF7FEBFFFF7FEBFFFF733
:10020000FEBFFFF7FEBFFFF7FEBFFFF7FEBFFFF722
:10021000FEBFFFF7FEBFFFF7FEBFFFF7FEBFFFF712
:10022000FEBFFFF7FEBFFFF7FEBFFFF7FEBFFFF702
:10023000FEBFFFF7FEBFFFF7FEBFFFF7FEBFFFF7F2
:10024000FEBFFFF7FEBFFFF7FEBFFFF7FEBFFFF7E2
:10025000FEBFFFF7FEBFFFF7FEBFFFF7FEBFFFF7D2
:10026000FEBFFFF7FEBFFFF7FEBFFFF7FEBFFFF7C2
:10027000FEBFFFF7FEBFFFF7FEBFFFF7FEBFFFF7B2
:10028000FEBF00BFB89D0000202F00200801000025
:10029000C09D0000401C002000000000C09D000028
:1002A000201C00200000000040300020701A0000D8
:1002B000401C0020E0120000201C00202000000054
:0802C000001C002004000000F6
:1002E0001FB514461A46094B05461B68D86854B911
:1002F000074B1C4600910749CDE901342B4600F01D
:1003000029F800F0F3FC044BF4E700BFBC2F0020F9
:100310007B1300004D13000040130000024B0A46FF
:100320000146186800F06EB8BC2F002008B5074BD6
:10033000044613B10021AFF30080054B1868836AAF
:1003400003B19847204609F097F800BF000000006D
:100350007C1300000EB403B503AB0146054853F807
:10036000042B0068019300F027F902B05DF804EB5C
:1003700003B07047BC2F002070B50D4D00260D4C0A
:10038000641BA410A64209D10B4D00260B4C09F0AA
:1003900075F8641BA410A64205D170BD55F8043B46
:1003A00001369847EEE755F8043B01369847F2E7E7
:1003B0002030002020300020203000202430002079
:1003C000024B0146186800F02BB800BFBC2F00207C
:1003D000884210B501EB020402D98442234607D8B3
:1003E000431EA14208D011F8012B03F8012FF8E7B2
:1003F000024401468A4200D110BD13F8014D02F8B3
:10040000014DF7E738B502FB01F5294600F052F837
:10041000044618B12A46002101F0E8F8204638BD0C
:1004200038B50546002941D051F8043C0C1F002B7B
:10043000B8BFE41800F088FE1D4A136833B9636042
:1004400014602846BDE8384000F084BEA34208D9B5
:10045000206821188B4201BF19685B680918216068
:10046000EDE71A465B680BB1A342FAD91168501840
:10047000A0420BD120680144501811608342E0D1A2
:1004800018685B68084453601060DAE702D90C23EF
:100490002B60D6E7206821188B4202BF19685B6881
:1004A0000918636008BF21605460CAE738BD00BF07
:1004B000A04A0020F8B5CD1C064625F003050835F6
:1004C0000C2D38BF0C25002D01DBA94203D90C23CC
:1004D00033600020F8BD00F037FE21490A68144659
:1004E0009CB9204F3B6823B92146304600F030FBD1
:1004F00038602946304600F02BFB431C23D10C23E7
:100500003046336000F026FEE3E723685B1B17D418
:100510000B2B03D923601C44256004E06368A242CE
:100520000CBF0B605360304600F014FE04F10B006A
:10053000231D20F00700C21A1CBF1B1AA350C9E7D5
:1005400022466468CCE7C41C24F00304A042E3D034
:10055000211A304600F0FCFA0130DDD1CFE700BFB0
:10056000A04A00209C4A00209368013B002B936026
:1005700010B407DA9469A34201DB0A2902D110BC46
:1005800000F0F6BA1368581C10600846197010BCC9
:100590007047F8B506460F461446D518AC4201D14F
:1005A000002007E03A4614F8011B3046FFF7DCFF55
:1005B000431CF3D1F8BD00002DE9F04F0D469DB06E
:1005C00014469846064618B183690BB900F0A8FC9A
:1005D000874B9D421BD175686B6ED90705D4AB89DB
:1005E0009A0502D4A86D00F039FDAB891B0701D52F
:1005F0002B69EBB92946304600F00CFBC0B16B6E9D
:10060000DC070ED54FF0FF301DB0BDE8F08F794B01
:100610009D4201D1B568DFE7774B9D4208BFF56881
:10062000DAE7AB899805EDD4A86D00F018FDE9E78D
:100630000023CDF80C804FF00109DFF8C081099349
:1006400020238DF8293030238DF82A3023469A460E
:1006500013F8012B0AB1252AF9D1BAEB040B0BD000
:100660005B46224629463046FFF793FF013000F0F3
:10067000A680099A5A4409929AF80030002B00F09B
:100680009E8000234FF0FF320AF1010A0493079382
:100690008DF853301A93CDE9052354460522574867
:1006A00014F8011B00F042FD049BD0B9D90644BFE9
:1006B00020228DF853201A0744BF2B228DF8532097
:1006C0009AF800202A2A14D0079A544600204FF0A6
:1006D0000A0C214611F8013B303B092B4AD970B96D
:1006E00014E0A0EB0800A24609FA00F018430490B9
:1006F000D3E7039A111D1268002A039101DB0792C8
:1007000004E0524243F002030792049323782E2B15
:100710000AD163782A2B32D1039B02341A1D1B683D
:1007200043EAE37303920593DFF8D4A00322217810
:10073000504600F0FBFC38B1A0EB0A004022049BBD
:10074000013482401343049314F8011B06222D4800
:100750008DF8281000F0EAFC00283FD02A4B1BBB84
:10076000039B073323F0070308330393099B3B44A0
:1007700009936BE70CFB02320C460120A9E700232A
:1007800001344FF00A0C19460593204610F8012B4E
:10079000303A092A03D9002BC6D00591C4E70CFBD7
:1007A000012104460123F0E703AB2A4604A93046A1
:1007B0000093164BAFF300800746781CD6D16B6EC2
:1007C000D90705D4AB899A0502D4A86D00F047FC7F
:1007D000AB895B063FF516AF099815E703AB2A46D0
:1007E00004A930460093094B00F084F8E4E700BF09
:1007F000F4130000D4130000B413000080130000B1
:10080000861300008A13000000000000930500001A
:100810002DE9F047164698468A6807460B690C464C
:10082000DDF820909342B8BF1346336091F843201F
:100830000AB1013333602368990642BF336802333B
:100840003360256815F0060506D104F1190AE3683E
:1008500032689B1AAB422BDC94F843302268003B91
:1008600018BF0123920630D404F1430241463846B2
:10087000C847013023D023681A3454F80A2C03F0F7
:100880000603042B0ABF54F80E5C002533684FF0B2
:10089000000608BFED1A54F8123C08BF25EAE575BA
:1008A0009342C4BF9B1AED18B5421AD1002008E04C
:1008B0000123524641463846C847013003D14FF024
:1008C000FF30BDE8F0870135C1E7E1185A1C302040
:1008D0000233224481F8430094F8451082F8431013
:1008E000C2E70123224641463846C8470130E6D0D8
:1008F0000136D9E72DE9FF470F7E914680460C4629
:10090000782F9A460C9D01F1430207D8622F0AD82E
:10091000002F00F0E080582F00F0BB8004F1420669
:1009200084F842703AE0A7F16303152BF6D801A1D1
:1009300051F823F08D090000A10900001D090000F5
:100940001D0900001D0900001D090000A10900008B
:100950001D0900001D0900001D0900001D090000FF
:10096000BD0A0000310A0000730A00001D090000E2
:100970001D090000DF0A00001D090000310A000007
:100980001D0900001D0900007B0A00002B6804F10E
:1009900042061A1D1B682A6084F842300123ABE02E
:1009A000236829681F0601F10400286001D50D683D
:1009B00003E05E06FBD5B1F90050002D61687ADADC
:1009C0002D200029A16084F843002DDA6D425E4895
:1009D0000A231646B5FBF3F103FB1157C75D06F872
:1009E000017D2F460D46BB42F4D9082B0BD123685D
:1009F000DF0708D5236961689942DEBF302306F816
:100A0000013C06F1FF36921B22614B4603AA2146A8
:100A10004046CDF800A0FFF7FBFE013071D14FF04A
:100A2000FF3004B0BDE8F08723F004032360CDE776
:100A30002B682068191D2960050601D51D6802E094
:100A40004106FBD51D886F2F3F4814BF0A2308239A
:100A5000002184F843106668002EA660B9DB216887
:100A600021F004012160002DB3D1002EB1D1164632
:100A7000BBE7236843F0200323607827334884F8DA
:100A80004570296823680E1D2E601E0603D50D686B
:100A900004E02D48F3E75D06F9D50D88D90744BF7A
:100AA00043F0200323600DB11023D1E7236823F026
:100AB00020032360F8E724480A23CCE72B68266844
:100AC000181D6169286035061B6801D5196002E0B0
:100AD0007006FBD5198000231646236195E72B6825
:100AE00000211A1D2A601E686268304600F01EFB55
:100AF00008B1801B606063682361002384F8433081
:100B000083E72369324649464046D047013086D0C4
:100B100023689B0714D4E068039B9842B8BF18462B
:100B20007FE70123324649464046D04701303FF433
:100B300076AF0135E36803995B1AAB42F1DCEAE773
:100B4000002504F11906F5E791130000A213000037
:100B500038B50023054D044608462B6008F074FCA8
:100B6000431C02D12B6803B1236038BDA84A002082
:100B7000F8B50E461446054618B183690BB900F066
:100B8000CFF9214B9C4210D16C68A369A360A38963
:100B90001A0701D5236993B92146284600F03AF88F
:100BA00068B14FF0FF373846F8BD184B9C4201D171
:100BB000AC68EAE7164B9C4208BFEC68E5E723699E
:100BC000F6B220683746C01A6369834205DC2146C5
:100BD000284600F011F90028E3D1A3680130013B59
:100BE000A36023685A1C22601E706369834204D08C
:100BF000A389DB07D7D50A2ED5D12146284600F098
:100C0000FBF80028CFD0CCE7F4130000D413000089
:100C1000B4130000314B70B51D6806460C4625B173
:100C2000AB6913B9284600F07BF92D4B9C420ED1DD
:100C30006C68B4F90C301A072CD4DD0611D40922E3
:100C4000326043F040034FF0FF30A3813DE0254B7D
:100C50009C4201D1AC68ECE7234B9C4208BFEC6896
:100C6000E7E7580712D5616B41B104F1440399429B
:100C700002D03046FFF7D4FB00236363A38923F03F
:100C80002403A3810023636023692360A38943F0C5
:100C90000803A38123694BB9A38903F42073B3F537
:100CA000007F03D02146304600F000FAB4F90C3042
:100CB00013F001020AD00022A26062695242A261CE
:100CC000226942B913F08000BBD170BD990758BFAB
:100CD0006269A260F4E70020F7E700BFBC2F0020A4
:100CE000F4130000D4130000B4130000062008B56C
:100CF00000F05EFA012008F0BFFBB1F90C20F8B556
:100D0000170705460C4656D44B68002B02DC0B6CCB
:100D1000002B3DDDE66A002E3AD0002312F480520B
:100D20002F68216A2B6025D0626DA389580705D5ED
:100D30006368D21A636B0BB1236CD21A216A002349
:100D4000E66A2846B047411C24D00023636023692B
:100D50002360A389DA0400D56065616B2F60B9B1A7
:100D600004F14403994202D02846FFF759FB0023BF
:100D700063630DE001232846B047461C0246D4D1E8
:100D80002B68002BD1D01D2B01D0162B29D12F6021
:100D900000202DE02A68B4F90C3042B11D2A01D0A0
:100DA000162A20D10023636023692360D5E762609F
:100DB00022692260CEE70F69002FE9D093070E6801
:100DC0000F600CBF4B690023F61B8B60002EDFDD2C
:100DD00033463A46216A2846D4F828C0E04700281E
:100DE00007DCB4F90C3043F040034FF0FF30A3812F
:100DF000F8BD0744361AE9E738B50B6905460C46D5
:100E000013B90025284638BD18B183690BB900F025
:100E100087F8144B9C421BD16C68B4F90C30002B42
:100E2000EFD0626ED00704D4990502D4A06D00F013
:100E300015F928462146FFF760FF636E0546DA077D
:100E4000E0D4A3899B05DDD4A06D00F008F9D9E7B3
:100E5000054B9C4201D1AC68DFE7044B9C4208BFC4
:100E6000EC68DAE7F4130000D4130000B4130000B8
:100E7000002310B504468360818119464366C28110
:100E800008228361C0E90033C0E904335C3000F01C
:100E9000ADFB054B24626362044BA362044BE36227
:100EA000044B236310BD00BFE91100000B120000CA
:100EB0004312000067120000014900F0AFB800BF04
:100EC000F90D000070B568234D1E0E465D4305F117
:100ED0007401FFF7EFFA044640B1002105F1680202
:100EE000C0E900160C30A06000F080FB204670BD09
:100EF000014800F0B3B800BFA54A0020014800F047
:100F0000AEB800BFA54A0020014800F0A7B800BF56
:100F1000A64A0020014800F0A2B800BFA64A00205F
:100F200010B50446FFF7F0FFA3691BB1BDE8104000
:100F3000FFF7F0BFC4E9123323652046124B134A72
:100F40001B68A262A34204BF0123A36100F020F842
:100F50006060204600F01CF8A060204600F018F801
:100F600000220421E0606068FFF782FF012209216E
:100F7000A068FFF77DFF02221221E068FFF778FFEB
:100F80000123A361D2E700BF7C130000B90E00006B
:100F9000F8B50746FFF7ACFF1E4B1E68B36913B9DF
:100FA0003046FFF7BDFF4836D6E90134013B03D593
:100FB00033680BB33668F7E7B4F90C50D5B9164B64
:100FC00004F158006566E36000F047F8FFF796FF0C
:100FD0000822294604F15C002560A561C4E9015599
:100FE000C4E9045500F002FBC4E90D55C4E91255EB
:100FF0002046F8BD6834D9E704213846FFF762FF80
:10100000044630600028D5D1FFF778FF0C233B6001
:10101000EEE700BF7C1300000100FFFF2DE9F8435D
:101020000646884600F148040027D4E90195B9F145
:10103000010905D52468002CF7D13846BDE8F883AE
:10104000AB89012B07D9B5F90E30013303D02946FE
:101050003046C04707436835E9E770477047704737
:1010600070B50C46B1F90E1096B0154600291E4613
:101070000CDAA389002113F0800F14BF40234FF432
:101080008063002031602B6016B070BD6A4600F0AE
:1010900011F90028EDDB019901F47041A1F500532D
:1010A000594259414FF48063EBE700008B89F7B553
:1010B0009D0706460C4607D504F1470323602361CC
:1010C0000123636103B0F0BD01AB6A46FFF7C8FFBF
:1010D000009F054630463946FFF7ECF948B9B4F9A8
:1010E0000C309A05EED423F0030343F00203A381EE
:1010F000E2E70D4BB362A389206043F08003A38134
:10110000019BC4E904075BB1B4F90E10304600F04E
:10111000E3F828B1A38923F0030343F00103A3817B
:10112000A3891D43A581CDE7B90E0000C9B20346CE
:10113000024410B59342184601D1002003E0047820
:1011400001338C42F6D110BD0148FFF787BF00BFC5
:10115000A44A00200148FFF782BF00BFA44A002034
:101160001F2938B505460C4604D9162303604FF0F5
:10117000FF3038BD426C12B152F821304BB92846CD
:1011800000F030F8224601462846BDE8384000F01D
:1011900017B8012B0AD0591C03D116230360012074
:1011A000E7E70021204642F8241098470020E0E7B6
:1011B000024B01461868FFF7D3BF00BFBC2F0020C9
:1011C00038B50023064D0446084611462B6008F04A
:1011D00023F9431C02D12B6803B1236038BD00BF43
:1011E000A84A002008F008B910B50C46B1F90E1055
:1011F00000F094F80028ABBF636DA3891B1823F49B
:101200008053ACBF6365A38110BD2DE9F0411F463B
:101210008B8905460C46DB05164605D502230022C0
:10122000B1F90E1000F068F8A3893246B4F90E1037
:10123000284623F48053A3813B46BDE8F04100F0EB
:1012400017B810B50C46B1F90E1000F055F8431C54
:10125000A38915BF606523F4805343F48053A381B1
:1012600018BFA38110BDB1F90E1000F013B8000033
:1012700038B50446064D0846114600222A601A4633
:1012800008F0F2F8431C02D12B6803B1236038BD8B
:10129000A84A002038B50023054D044608462B60B7
:1012A00008F09AF8431C02D12B6803B1236038BDC3
:1012B000A84A002038B50023064D044608461146CA
:1012C0002B6008F091F8431C02D12B6803B1236016
:1012D00038BD00BFA84A002038B50023054D04469C
:1012E00008462B6008F090F8431C02D12B6803B12C
:1012F000236038BDA84A002038B50446064D08468C
:10130000114600222A601A4608F08EF8431C02D1CA
:101310002B6803B1236038BDA84A002038B50446C5
:10132000064D0846114600222A601A4608F084F845
:10133000431C02D12B6803B1236038BDA84A0020AA
:101340002C2066756E6374696F6E3A20006173734A
:10135000657274696F6E2022257322206661696C44
:1013600065643A2066696C6520222573222C206C06
:10137000696E65202564257325730A00C02F00203F
:10138000232D302B2000686C4C006566674546476E
:1013900000303132333435363738394142434445F1
:1013A0004600303132333435363738396162636460
:1013B0006566000000000000000000000000000062
:1013C000000000000000000000000000000000001D
:1013D000000000000000000000000000000000000D
:1013E00000000000000000000000000000000000FD
:1013F00000000000000000000000000000000000ED
:1014000000000000000000000000000000000000DC
:1014100000000000009A3D4B9A420FD1EFF3148375
:101420000CB41FB53A486946002201F029FE0FBCF2
:101430000CBC9E460CBC83F3148874470FDFFEE798
:1014400000BF1846009A314B9A420FD1EFF3148334
:101450000CB41FB52F486946002201F011FE0FBCE5
:101460000CBC9E460CBC83F3148874470FDFFEE768
:1014700000BF18460CB4029A244B9A4212D10CBCFD
:101480009C46EFF314830CB463461FB522486946AB
:10149000002201F0F5FD0FBC0CBC9E460CBC83F392
:1014A000148874470FDFFEE700BF1846009A174BF9
:1014B0009A4210D1EFF314830CB463461FB517485A
:1014C0006946002201F0DCFD0FBC0CBC9E460CBC42
:1014D00083F3148874470FDFFEE700BF1846009AB5
:1014E0000A4B9A420FD1EFF314830CB41FB50C488A
:1014F0006946002201F0C4FD0FBC0CBC9E460CBC2A
:1015000083F3148874470FDFFEE700BFA5EDF5FEF7
:101510005131000061310000A9310000F1340000B8
:10152000CD350000431810B501D21F2A01D9002083
:1015300010BD013902F014030144102B80EA0104AC
:101540003CD009DC8BB1042BF1D11F2C40E840F3D7
:1015500015D941E840F10EE0142BE8D11F2C40E8EA
:10156000C0F30CD941E8C0F105E01F2C40E800F3BE
:1015700005D941E800F11C460B468C42D7D122F038
:101580001402013A0A2AD2D801A151F822F000BF70
:10159000DF150000D9150000CB1500002F15000045
:1015A0002F1500002F1500002F150000E515000075
:1015B000DF150000D3150000CB1500001F2C40E8FC
:1015C00080F3DCD941E880F1D5E713F4001FAFD1F7
:1015D000ADE713F4801FFAE75B02A9D5A7E713F480
:1015E000002FF4E713F4802FF1E700BF80B487B039
:1015F00000AFF860B9607A60FB683B61BB68DBB242
:101600001A4613461B0213441B041A46BB68DBB27E
:101610001B021343BA68D2B213437B6108E03B69F3
:101620005A1C3A61BA68D2B21A707B68013B7B607F
:101630007B68002B0DD03B6903F00303002BEED138
:1016400007E03B691A1D3A617A691A607B68043BBE
:101650007B607B68032BF4D805E03B695A1C3A6138
:10166000BA68D2B21A707B685A1E7A60002BF4D125
:10167000FB6818461C37BD4680BC704780B487B0F5
:1016800000AFF860B9607A60FB687B61BB683B6162
:101690000AE03A69531C3B617B69591C79611278F5
:1016A0001A707B68013B7B607B68002B15D07B69DF
:1016B00003F00103002BECD13B6903F00103002B85
:1016C000E7D10AE03A69931C3B617B69991C796117
:1016D00012881A807B68023B7B607B68012B15D9DE
:1016E0007B6903F00203002BECD13B6903F002039A
:1016F000002BE7D10AE03A69131D3B617B69191D94
:10170000796112681A607B68043B7B607B68032BFD
:10171000F1D807E03A69531C3B617B69591C796138
:1017200012781A707B685A1E7A60002BF2D1FB681F
:1017300018461C37BD4680BC7047000080B483B09B
:1017400000AF084B1B687B607B685B68002B02D195
:101750007B681B6800E0044B18460C37BD4680BC14
:10176000704700BF001C002075170000FFF7E6FF60
:10177000004700BF90B595B000AF2F4B1B687B644E
:101780007B6C1B683B647B6C0833FB637B6C5B6826
:10179000012202FA03F3013BBB633B6C002B06D032
:1017A0003B6C98470346002B01D007F0B7FE4FF083
:1017B0000041B86B07F086FEF8640023BB642DE09F
:1017C0000122BB6C02FA03F37B63FA6C7B6B134060
:1017D000002B20D0BB6C9B00FA6B13441B68002BC2
:1017E00001D107F09BFE3B1D1946786B07F070FE98
:1017F000BC68BB6C9B00FA6B13441B683A1D104617
:10180000984703461946204607F079FE7B6BDB4379
:10181000FA6C1340FB64BB6C0133BB64FB6C002BA4
:1018200004D07B6C5A68BB6C9A42C9D8FB6C002B05
:10183000BDD007F073FEBAE7001C002000000000D6
:1018400001015F5F030100001F010000B31C0000E5
:10185000000800000000000001000000010000007E
:101860000000000000000000102200200000000026
:101870007000000094950000800000000007000048
:1018800001000000D71C00000100000000015F5FA4
:10189000040100001F0300003127000000050000C4
:1018A0000000000000000000030000000000000035
:1018B00000000000102A002000000000A095000099
:1018C00040000000000500000100000000000000D2
:1018D00010000000C095000041000000000500005D
:1018E000010000000000000020000000D89500006A
:1018F00042000000000400000100000000000000A1
:101900004000000000015F5F00000000FE030000D7
:10191000BD450000000400000000000000000000C1
:10192000000000000000000000000000E031002086
:101930000000000001015F5F01000000FF030000E4
:10194000F54500000001000000000000000000005C
:10195000000000000000000000000000E035002052
:041960000000000083
:1019800080B483B000AF7860044A7B68C2F8043446
:10199000002318460C37BD4680BC7047401C002011
:1019A00080B483B000AF786039607B68033323F084
:1019B00003037B600F4BD3F80034C3F580637A6870
:1019C0009A4202D96FF08C030FE00A4BD3F800342F
:1019D000084A1A443B681A60064BD3F800247B6817
:1019E0001344044AC2F80034002318460C37BD469D
:1019F00080BC7047401C002080B584B000AF0C4B09
:101A00000022C3F804240A4BD3F80034084AFA60D1
:101A10000022BA607B607A68B968F868FFF7E6FD73
:101A2000034B0022C3F8002400BF1037BD4680BD21
:101A3000401C002090B5A5B000AF78600023C7F827
:101A400080300423C7F88C300423C7F8883007F1AE
:101A50006003202200211846FFF7C8FD07F140036C
:101A6000202200211846FFF7C1FD07F10C033422A4
:101A700000211846FFF7BAFD0023BB6004E0D7F849
:101A80008C30013BC7F88C30D7F88C30002B08D055
:101A9000D7F88C305A1E7B68043253F82230002B62
:101AA000EDD0D7F88C30002B02D16FF08303E5E046
:101AB0007B68586807F10C023423002107F00EFD03
:101AC0000346342B02D06FF08303D7E0FB68402B32
:101AD00002D96FF08303D1E007F10C033B66342396
:101AE0007B660123C7F8843039E07B68D7F884200F
:101AF000043253F8223007F1080211461846FFF766
:101B00004FFFC7F88000D7F88030002B04D0FFF7D4
:101B100073FFD7F88030B1E07B685868B9687B689C
:101B2000D7F88420043253F822300A46D7F88410BC
:101B300007F0D4FC0246D7F88430DB0090333B44F6
:101B400043F82C2CBA68D7F88430DB0090333B4440
:101B500043F8302CD7F884300133C7F88430D7F8F5
:101B60008420D7F88C309A42BFD304E0D7F888306D
:101B7000013BC7F88830D7F88830002B08D0D7F859
:101B800088305A1E7B68083253F82230002BEDD083
:101B90000023C7F8843030E07B68D7F8842008320F
:101BA00053F8223007F1080211461846FFF7F8FEF5
:101BB000C7F88000D7F88030002B04D0FFF71CFF57
:101BC000D7F880305AE0BA68D7F88430DB00903319
:101BD0003B4443F8502C7B68D7F88420083253F8F4
:101BE0002220D7F88430DB0090333B4443F84C2C60
:101BF000D7F884300133C7F88430D7F88420D7F879
:101C000088309A42C8D37B689B681846FFF7B8FEB5
:101C1000FB681C4A52F8234007F1400207F16000BC
:101C2000D7F88830D7F88C10A047C7F88000002379
:101C3000C7F8843018E07B685868D7F88430DB0038
:101C400090333B4453F8502CD7F88430DB0090336A
:101C50003B4453F84C3CD7F8841007F04BFCD7F8C2
:101C600084300133C7F88430D7F88420D7F888301F
:101C70009A42E0D3FFF7C0FED7F880301846943779
:101C8000BD4690BD9427000080B500AF01210448F7
:101C900003F032FF03F098FF0346184680BD00BFF3
:101CA0004820002080B500AF00F028F80346184611
:101CB00080BD80B582B000AFFFF7F4FF78607B682D
:101CC000002B01D07B6802E0FFF7DEFF03461846D9
:101CD0000837BD4680BD80B582B000AF78607B68B4
:101CE0001B68002B04D17868FFF7A4FE034601E0CF
:101CF0006FF0850318460837BD4680BD80B584B0B7
:101D000000AF084BFB600023BB604FF4E0737B60C7
:101D10007A68B968F868FFF769FC0023184610373D
:101D2000BD4680BD5020002080B485B000AFF86073
:101D3000B9607A603B606FF0850318461437BD4682
:101D400080BC704780B485B000AFF860B9607A603D
:101D50003B606FF0850318461437BD4680BC704762
:101D600080B485B000AFF860B9607A603B606FF016
:101D7000850318461437BD4680BC704780B485B0D3
:101D800000AFF860B9607A603B606FF08503184679
:101D90001437BD4680BC704780B485B000AFF86092
:101DA000B9607A603B606FF0850318461437BD4612
:101DB00080BC704780B485B000AFF860B9607A60CD
:101DC0003B606FF0850318461437BD4680BC7047F2
:101DD00080B485B000AFF860B9607A603B606FF0A6
:101DE000850318461437BD4680BC704780B485B063
:101DF00000AFF860B9607A603B606FF08503184609
:101E00001437BD4680BC704780B485B000AFF86021
:101E1000B9607A603B606FF0850318461437BD46A1
:101E200080BC704780B485B000AFF860B9607A605C
:101E30003B606FF0850318461437BD4680BC704781
:101E400080B485B000AFF860B9607A603B606FF035
:101E5000850318461437BD4680BC704780B485B0F2
:101E600000AFF860B9607A603B606FF08503184698
:101E70001437BD4680BC704780B485B000AFF860B1
:101E8000B9607A603B606FF0850318461437BD4631
:101E900080BC704780B485B000AFF860B9607A60EC
:101EA0003B606FF0850318461437BD4680BC704711
:101EB00080B485B000AFF860B9607A603B606FF0C5
:101EC000850318461437BD4680BC704780B485B082
:101ED00000AFF860B9607A603B606FF08503184628
:101EE0001437BD4680BC704780B485B000AFF86041
:101EF000B9607A603B606FF0850318461437BD46C1
:101F000080BC704780B485B000AFF860B9607A607B
:101F10003B606FF0850318461437BD4680BC7047A0
:101F200080B485B000AFF860B9607A603B606FF054
:101F3000850318461437BD4680BC704780B485B011
:101F400000AFF860B9607A603B606FF085031846B7
:101F50001437BD4680BC704780B485B000AFF860D0
:101F6000B9607A603B606FF0850318461437BD4650
:101F700080BC704780B485B000AFF860B9607A600B
:101F80003B606FF0850318461437BD4680BC704730
:101F900080B485B000AFF860B9607A603B606FF0E4
:101FA000850318461437BD4680BC704780B485B0A1
:101FB00000AFF860B9607A603B606FF08503184647
:101FC0001437BD4680BC704780B485B000AFF86060
:101FD000B9607A603B606FF0850318461437BD46E0
:101FE00080BC704780B485B000AFF860B9607A609B
:101FF0003B606FF0850318461437BD4680BC7047C0
:1020000080B485B000AFF860B9607A603B606FF073
:10201000850318461437BD4680BC704780B485B030
:1020200000AFF860B9607A603B606FF085031846D6
:102030001437BD4680BC704780B485B000AFF860EF
:10204000B9607A603B606FF0850318461437BD466F
:1020500080BC704780B485B000AFF860B9607A602A
:102060003B606FF0850318461437BD4680BC70474F
:1020700080B485B000AFF860B9607A603B606FF003
:10208000850318461437BD4680BC704780B485B0C0
:1020900000AFF860B9607A603B606FF08503184666
:1020A0001437BD4680BC704780B485B000AFF8607F
:1020B000B9607A603B606FF0850318461437BD46FF
:1020C00080BC704780B485B000AFF860B9607A60BA
:1020D0003B606FF0850318461437BD4680BC7047DF
:1020E00080B485B000AFF860B9607A603B606FF093
:1020F000850318461437BD4680BC704780B485B050
:1021000000AFF860B9607A603B606FF085031846F5
:102110001437BD4680BC704780B485B000AFF8600E
:10212000B9607A603B606FF0850318461437BD468E
:1021300080BC704780B485B000AFF860B9607A6049
:102140003B606FF0850318461437BD4680BC70476E
:1021500080B485B000AFF860B9607A603B606FF022
:10216000850318461437BD4680BC704780B485B0DF
:1021700000AFF860B9607A603B606FF08503184685
:102180001437BD4680BC704780B485B000AFF8609E
:10219000B9607A603B606FF0850318461437BD461E
:1021A00080BC704780B485B000AFF860B9607A60D9
:1021B0003B606FF0850318461437BD4680BC7047FE
:1021C00080B485B000AFF860B9607A603B606FF0B2
:1021D000850318461437BD4680BC704780B485B06F
:1021E00000AFF860B9607A603B606FF08503184615
:1021F0001437BD4680BC704780B485B000AFF8602E
:10220000B9607A603B606FF0850318461437BD46AD
:1022100080BC704780B485B000AFF860B9607A6068
:102220003B606FF0850318461437BD4680BC70478D
:1022300080B485B000AFF860B9607A603B606FF041
:10224000850318461437BD4680BC704780B485B0FE
:1022500000AFF860B9607A603B606FF085031846A4
:102260001437BD4680BC704780B485B000AFF860BD
:10227000B9607A603B606FF0850318461437BD463D
:1022800080BC704780B485B000AFF860B9607A60F8
:102290003B606FF0850318461437BD4680BC70471D
:1022A00080B485B000AFF860B9607A603B606FF0D1
:1022B000850318461437BD4680BC704780B485B08E
:1022C00000AFF860B9607A603B606FF08503184634
:1022D0001437BD4680BC704780B485B000AFF8604D
:1022E000B9607A603B606FF0850318461437BD46CD
:1022F00080BC704780B485B000AFF860B9607A6088
:102300003B606FF0850318461437BD4680BC7047AC
:1023100080B485B000AFF860B9607A603B606FF060
:10232000850318461437BD4680BC704780B485B01D
:1023300000AFF860B9607A603B606FF085031846C3
:102340001437BD4680BC704780B485B000AFF860DC
:10235000B9607A603B606FF0850318461437BD465C
:1023600080BC704780B485B000AFF860B9607A6017
:102370003B606FF0850318461437BD4680BC70473C
:1023800080B485B000AFF860B9607A603B606FF0F0
:10239000850318461437BD4680BC704780B485B0AD
:1023A00000AFF860B9607A603B606FF08503184653
:1023B0001437BD4680BC704780B485B000AFF8606C
:1023C000B9607A603B606FF0850318461437BD46EC
:1023D00080BC704780B485B000AFF860B9607A60A7
:1023E0003B606FF0850318461437BD4680BC7047CC
:1023F00080B485B000AFF860B9607A603B606FF080
:10240000850318461437BD4680BC704780B485B03C
:1024100000AFF860B9607A603B606FF085031846E2
:102420001437BD4680BC704780B485B000AFF860FB
:10243000B9607A603B60FA68BB689A420DD3FA686B
:102440007B689A4209D83A68BB699A4205D33A68D0
:10245000FB699A4201D8012300E000231846143793
:10246000BD4680BC704780B588B002AFF860B960E7
:102470007A603B6001230193002300933B680122B3
:102480000121B868FFF7D0FF034683F00103DBB2F8
:10249000002B02D06FF0800311E0FB685B68342BE7
:1024A00002D06FF080030AE07B681B687B617B6869
:1024B0005B683B613969786903F06AFB034618463B
:1024C0001837BD4680BD80B500AF04F0B7FB0023D0
:1024D000184680BD80B582B000AF7860FFF7F3FF8B
:1024E000034618460837BD4680BD80B483B000AFB0
:1024F00078606FF0850318460C37BD4680BC704786
:1025000080B5AEB000AF78600023C7F8B4300023C8
:10251000C7F8B03007F1980300221A605A6007F13B
:10252000900300221A605A6000233B6507F15403B0
:102530003C2200211846FFF759F800233B6107F1C0
:1025400014033C2200211846FFF750F80023FB60DB
:102550000123C7F8A4300023C7F8A0300423C7F82C
:10256000AC300423C7F8A83004E0D7F8AC30013B06
:10257000C7F8AC30D7F8AC30002B0ED0D7F8AC3061
:102580005A1E7B68043253F82230002BEDD004E051
:10259000D7F8A830013BC7F8A830D7F8A830002BEF
:1025A00008D0D7F8A8305A1E7B68083253F822307A
:1025B000002BEDD0D7F8AC30002B07D0D7F8AC30DB
:1025C000022B03D8D7F8A830012B01D901236DE0E5
:1025D0007B68586807F10C020423002106F07EFF97
:1025E0000346C7F8A030D7F8A030042B02D06FF014
:1025F00080035BE0D7F8AC30012B27D97B685B699F
:10260000402B02D96FF0800350E07B6858687B68EC
:102610005B6907F15002012106F060FF0346C7F82D
:10262000A0307B685A69D7F8A0309A4202D06FF088
:1026300080033BE007F15003C7F898307B685B6983
:10264000C7F89C3007F19803C7F8B430D7F8A83022
:10265000002B12D07B681B6A402B02D96FF08003DD
:1026600024E007F11003C7F890307B681B6AC7F8B5
:10267000943007F19003C7F8B030FB68D7F8B0206A
:10268000D7F8B410184604F0DDFAC7F8A400D7F85C
:10269000B030002B08D07B685868D7F89020D7F866
:1026A0009430002106F026FFD7F8A4301846B8373A
:1026B000BD4680BD80B590B000AF7860396007F14D
:1026C0000C031946786806F003FFF863FB68B3F55E
:1026D0007D7F26DA40F2F23293420FDA002B0DD0E2
:1026E000002B1EDC13F1020F15D0B3F1FF3F18D100
:1026F0003B690021184606F002FF15E007F10C02C5
:102700003B68104698470346FB633B69F96B1846E4
:1027100006F0F5FE08E03B690021184606F0EFFEE2
:1027200002E006F0FBFE00BF00BF4037BD4680BDA3
:1027300080B582B000AF4FF000414FF0FF3006F09F
:10274000C1FE78607B6803F01003002B04D00E49B3
:102750001020FFF7AFFFEEE77B6803F02003002BAC
:1027600004D00A492020FFF7A5FFE4E77B6803F0C7
:102770004003002B04D006494020FFF79BFFDAE717
:1027800006F0CCFED7E700BFD524000001250000ED
:10279000EB240000652300008123000011230000CA
:1027A0002D230000F5220000492300009D23000096
:1027B000B9230000D5230000F1230000CD1E000046
:1027C000E91E0000251E0000411E00005D1E0000E5
:1027D000791E0000951E0000B11E0000AD1F000014
:1027E000C91F0000051F0000211F00003D1F000041
:1027F000591F0000751F0000911F0000ED1D000013
:10280000091E0000611D00007D1D0000291D000043
:10281000451D0000991D0000B51D0000D11D0000E0
:10282000E51F0000012000001D20000039200000ED
:102830008D200000A9200000C5200000FD20000020
:10284000E120000071200000192100005520000047
:1028500035210000512100006D2100008921000078
:10286000A5210000C1210000DD210000F9210000A8
:10287000152200003122000069220000BD22000064
:102880004D22000085220000A1220000D922000074
:10289000672400000D24000000000000000000007C
:1028A0000348044B834202D0034B03B118477047DF
:1028B0002830002028300020000000000548064B8A
:1028C0001B1AD90F01EBA301491002D0034B03B12E
:1028D00018477047283000202830002000000000F2
:1028E00010B5064C237843B9FFF7DAFF044B13B158
:1028F0000448AFF300800123237010BDB0310020E5
:1029000000000000AC9D000008B5044B1BB1044959
:102910000448AFF30080BDE80840CFE700000000A6
:10292000B4310020AC9D0000A3F5803A704700BF91
:10293000174B002B08BF134B9D46FFF7F5FF0021F7
:102940008B460F461348144A121AFEF74FFE0E4BE1
:10295000002B00D098470D4B002B00D0984700204B
:10296000002104000D000D48002802D00C48AFF3F0
:102970000080FDF701FD2000290000F011FBFDF7AC
:10298000D5FC00BF000008000000000000000000AF
:10299000000C002040300020B04A00200000000061
:1029A0000000000080B500AF01F0FDFB00BF80BD5E
:1029B000FFF7F8FFFEE700BF80B500AF01F0F3FBC3
:1029C00000BF80BDFFF7F8FFFEE700BF80B500AF96
:1029D00001F0E9FB00BF80BDFFF7F8FFFEE700BF95
:1029E00080B500AF01F0DFFB00BF80BDFFF7F8FF4F
:1029F000FEE700BF80B500AF01F0D5FB00BF80BD92
:102A0000FFF7F8FFFEE700BF80B483B000AF144BC0
:102A10001B687B60134B1B683B607B68072B19D1DD
:102A20003B68023B032B13D801A252F823F000BFEE
:102A3000412A0000452A0000492A00004D2A0000D2
:102A4000012308E0002306E0002304E0002302E065
:102A5000002300E0002318460C37BD4680BC7047B9
:102A60003001FF003401FF0080B483B000AF144B8D
:102A70001B687B60134B1B683B607B68072B19D17D
:102A80003B68023B032B13D801A252F823F000BF8E
:102A9000A12A0000A52A0000A92A0000AD2A0000F2
:102AA000012308E0012306E0002304E0002302E004
:102AB000002300E0002318460C37BD4680BC704759
:102AC0003001FF003401FF0080B483B000AF144B2D
:102AD0001B687B60134B1B683B607B68072B19D11D
:102AE0003B68023B032B13D801A252F823F000BF2E
:102AF000012B0000052B0000092B00000D2B00000E
:102B0000012308E0002306E0002304E0002302E0A4
:102B1000002300E0002318460C37BD4680BC7047F8
:102B20003001FF003401FF0080B483B000AF144BCC
:102B30001B687B60134B1B683B607B68072B19D1BC
:102B40003B68023B032B13D801A252F823F000BFCD
:102B5000612B0000652B0000692B00006D2B00002D
:102B6000012308E0012306E0012304E0012302E041
:102B7000012300E0002318460C37BD4680BC704797
:102B80003001FF003401FF0080B483B000AF144B6C
:102B90001B687B60134B1B683B607B68072B19D15C
:102BA0003B68023B032B13D801A252F823F000BF6D
:102BB000C12B0000C52B0000C92B0000CD2B00004D
:102BC000012308E0002306E0002304E0002302E0E4
:102BD000002300E0002318460C37BD4680BC704738
:102BE0003001FF003401FF0080B483B000AF144B0C
:102BF0001B687B60134B1B683B607B68072B19D1FC
:102C00003B68023B032B13D801A252F823F000BF0C
:102C1000212C0000252C0000292C00002D2C000068
:102C2000012308E0002306E0002304E0002302E083
:102C3000002300E0002318460C37BD4680BC7047D7
:102C40003001FF003401FF0080B483B000AF144BAB
:102C50001B687B60134B1B683B607B68072B19D19B
:102C60003B68023B032B13D801A252F823F000BFAC
:102C7000812C0000852C0000892C00008D2C000088
:102C8000012308E0002306E0002304E0002302E023
:102C9000002300E0002318460C37BD4680BC704777
:102CA0003001FF003401FF0080B483B000AF144B4B
:102CB0001B687B60134B1B683B607B68072B19D13B
:102CC0003B68023B032B13D801A252F823F000BF4C
:102CD000E12C0000E52C0000E92C0000ED2C0000A8
:102CE000012308E0012306E0012304E0012302E0C0
:102CF000012300E0002318460C37BD4680BC704716
:102D00003001FF003401FF0080B400AF064B074ADA
:102D10001B68C2F84435044B044ADB69C2F84C35E1
:102D200000BFBD4680BC70470080FF0000600050BF
:102D300080B400AF4FF05023D3F8583503F00303AD
:102D4000044A22FA03F3044A136000BFBD4680BC64
:102D5000704700BF0020A107202F002080B582B05F
:102D600000AF614B1B68604A43F002031360FFF73A
:102D70006BFF0346002B0CD05C4B1B68002B08D16B
:102D80005A4B0D221A605A4B01221A60584B0022EE
:102D90001A6000237B6000237B6010E04FF47F010A
:102DA0004FF47F027B68603352F833207B686033D6
:102DB000DB000B445B6813607B6801337B607B68DE
:102DC0001F2B08D84FF47F027B68603352F83330F2
:102DD000B3F1FF3FE2D1FFF7D7FE0346002B05D04A
:102DE000444B29221A60444B03221A60FFF70CFE61
:102DF0000346002B07D0414B414A1A604FF0502345
:102E00000122C3F85825FFF72FFE0346002B02D0FE
:102E10003C4B00221A60FFF757FE0346002B11D0EF
:102E20004FF05023D3F8003403F00103002B09D0F6
:102E30004FF050230022C3F814214FF050230022FA
:102E4000C3F81821FFF770FE0346002B0DD04FF09A
:102E50005023D3F8003403F00103002B05D04FF0CA
:102E600050236FF00102C3F80024FFF7BDFE0346B4
:102E7000002B02D01F4B65221A60FFF715FF034697
:102E8000002B21D0204B1B68002B1DDA4FF0502364
:102E90000322C3F818254FF0502301229A6000BF87
:102EA0004FF05023D3F80431002BF9D04FF05023CA
:102EB0000022C3F804214FF050230122DA604FF0C2
:102EC00050230122C3F81825104BD3F88C300F4A39
:102ED00043F44063C2F88C30FFF716FFFFF728FF7A
:102EE00000BF0837BD4680BDD0ED00E0204A00504D
:102EF0001C4900500C4700503C470050309503508F
:102F00004400EFBE4C2503502024035000ED00E0A8
:102F100080B485B000AF78607B68FB60FB6883F3AA
:102F20000A8800BF00BF1437BD4680BC704780B51B
:102F300082B000AF43F65C237B6043F6DA333B603C
:102F400002F0B0FE38603B68002B01D01F2323E065
:102F500003F028FE38603B68002B01D01F231BE0E4
:102F600003F03AFE78607B68002B01D01F2313E04A
:102F700003F039FE0346002B07D003F03BFE7860D8
:102F80007B68002B03D01F2306E003F03AFE01F01C
:102F9000EBFA01F06BFB002318460837BD4680BDF5
:102FA00080B582B000AF4FF0FF337B600B4B18460B
:102FB000FFF7AEFFFFF7BBFF78607B68002B01D007
:102FC00001F053FC01F09CFA01F0D4FA01F0E8F8AA
:102FD000002318460837BD4680BD00BF000400200E
:102FE00090B587B000AF786039603B687B610F4B6C
:102FF0001B685B68103B3B613B693A681A623B693E
:103000000B4A5A627C687B6918687B6959687B69DE
:103010009A687B69DB68A047F860F86800F077F889
:10302000FB6818461C37BD4690BD00BFEC3600203B
:10303000EDEEEEEE80B584B000AF786039600E4BF7
:103040001B685B68103BFB603B68BB60FB685B6AAE
:103050000A4A934202D17A68BB681A6001F0AAF862
:103060000246054B1B689A4201D001F059FC00BF93
:103070001037BD4680BD00BFEC360020EDEEEEEE11
:1030800080B586B000AFF860B9607A60EFF3058371
:103090007B617B693B613B8AC3F308039BB2002BD6
:1030A00001D001F0E2FB7B68002B03D00A4B1B68C8
:1030B0001A6800E000227B68002B03D0064B1B68D7
:1030C0005B6800E00023B968F86801F0A1F900BF6F
:1030D0001837BD4680BD00BFE836002080B483B0FD
:1030E00000AFEFF3108372B67B607B6818460C3735
:1030F000BD4680BC704780B483B000AF78607B6809
:1031000083F3108800BF0C37BD4680BC704780B584
:1031100082B000AF78607B6813F1810F03D07B68C9
:1031200013F1820F09D101F065FF034683F001031B
:10313000DBB2002B01D001F098FB00BF0837BD4681
:1031400080BD80B400AF00231846BD4680BC7047E8
:1031500080B400AF40F201131846BD4680BC7047F2
:1031600080B584B000AF786001F044FF0346FB7384
:10317000786801F025FDB860BB68002B01D1002301
:103180000DE0FB7B1A46B968786801F099FD0346AB
:10319000002B01D0002302E0BB681B68DB681846E7
:1031A0001037BD4680BD000080B5A8B006AFF860FE
:1031B000B9607A603B6000233B6101F01BFF03466E
:1031C00087F87730BB681B0C1BB23B67BB681B0AD8
:1031D000DBB2FB66BB68DBB2BB663B6F002B02DA7F
:1031E0006FF080037CE1FB6E042B07D8BB6E042BD1
:1031F00004D8FA6EBB6E1344042B02D96FF080031F
:103200006EE1FB68002B02D16FF0800368E197F854
:103210007730184601F00AFF7866FB6803F08043B8
:10322000002B54D0FB68DBB23B663B6E1F2B02D9F0
:103230006FF0800354E1AC4A3B6E52F82330C7F87C
:103240008030D7F88030002B02D16FF0800347E147
:10325000D7F880301B685B68FB6597F877301A46B3
:10326000D7F88010F86D01F02BFD0346002B02D03B
:103270006FF0810334E1FB681B12DBB2BB65B96DF3
:10328000D7F8800001F0EAFC0346002B02D06FF073
:10329000800325E1FFF722FF03463B6101F0EAFBD3
:1032A000C7F884003B691846FFF725FFD7F884303C
:1032B000002B02D16FF0820312E1D7F88430002294
:1032C0001A60D7F8840001F09DFBF86020E0796E69
:1032D000F86801F043FDC7F88400D7F88430002B6C
:1032E00002D16FF08003FBE0D7F884305B68002BDD
:1032F00002D06FF08003F3E0D7F88430DB68C7F8C2
:103300008030D7F88030002B02D16FF08003E7E0E7
:1033100001237B65FB6ED90097F877207B6D0093C6
:103320000123786801F014FE0346002B02D06FF0F1
:103330008003D5E0BB6ED90097F877207B6D0093B2
:103340000223386801F004FE0346002B02D06FF020
:103350008003C5E007F1340320220021184601F064
:103360003CFA07F1140320220021184601F035FA37
:10337000FB6EDA0007F134037968184601F0CEF9E4
:10338000BB6EDA0007F114033968184601F0C6F97C
:103390000023FB671BE0FB6FDB0088333B4453F8E3
:1033A000540CFB6FDB0088333B4453F8501C97F8F8
:1033B00077207B6D0093012301F0CAFD0346002BAB
:1033C00002D06FF080038BE0FB6F0133FB67FB6F74
:1033D000FA6E9A42DFD80023FB673AE0FB6F0133B5
:1033E000BB672FE0BB6FDB0088333B4453F8542CA2
:1033F000BB6FDB0088333B4453F8503C1A44FB6FEF
:10340000DB0088333B4453F8543C9A4217D9BB6FD6
:10341000DB0088333B4453F8542CFB6FDB008833CC
:103420003B4453F8541CFB6FDB0088333B4453F898
:10343000503C0B449A4202D26FF0800350E0BB6FC5
:103440000133BB67BB6FFA6E9A42CBD8FB6F013377
:10345000FB67FB6F01331A46FB6E9342BED8002315
:10346000FB671BE0FB6FDB0088333B4453F8740CB5
:10347000FB6FDB0088333B4453F8701C97F87720D0
:103480007B6D0093022301F063FD0346002B02D005
:103490006FF0800324E0FB6F0133FB67FB6FBA6EB4
:1034A0009A42DFD83B680593BB6E049307F114037F
:1034B0000393FB6E029307F1340301937B6E009339
:1034C0003B6FFA68D7F88010D7F8840001F086FCCB
:1034D000064B9B68D7F88410D7F8800098470346BE
:1034E00018468837BD4680BD08370020F495000097
:1034F00080B58EB006AF7860396001F07BFD034681
:10350000FB770023BB60786801F05AFBB861BB69A8
:10351000002B02D16FF0810352E0BB691B689B68EE
:1035200003F40073002B02D06FF0800348E0FB7FB0
:103530001A46B969786801F0C3FB0346002B02D034
:103540006FF081033CE03968B86901F087FB0346FE
:10355000002B02D06FF0810332E0FB7F184601F0B0
:1035600065FD7861FFF7BAFD0346BB6001F082FAA2
:103570003861BB681846FFF7BEFD3B69002B02D1DE
:103580006FF082031CE0386901F03CFAF860002318
:103590000593002304930023039300230293002345
:1035A00001937B6900934FF0FF33FA68B96938697A
:1035B00001F014FC044B9B683969B86998470346CD
:1035C00018462037BD4680BDF495000080B58CB00C
:1035D00006AF786001F00EFD0346FB757B68002B9B
:1035E00001D1002340E07B6803F08043002B02D030
:1035F0006FF0800338E0FB7D184601F017FD38615D
:103600003969786801F0AAFBF860FB68002B02D1E9
:103610006FF0800328E0FB68DB68BB60BB68002BB1
:1036200002D16FF080031FE0FB685B68012B02D1C1
:103630006FF0800318E00023059300230493002318
:10364000039300230293002301933B6900936FF0DF
:1036500001037A68B968F86801F0C0FB044B9B6805
:10366000F968B8689847034618461837BD4680BDC4
:10367000F495000080B584B000AF78603960002315
:10368000FB603B6803F000433B60104B1B685B68CA
:10369000103BFB60FB689A6A7B681340002B01D1EA
:1036A00001F0E3F83B68B3F1004F06D1084B1B690A
:1036B0007968F8689847034603E0FB681A6B7B68F3
:1036C000134018461037BD4680BD00BFEC360020C1
:1036D000F495000080B588B002AF786039600023AF
:1036E0007B6100233B617B68002B05D07B685A1E01
:1036F0007B681340002B01D001F0B7F81C4B1B680E
:103700005B68103B3B610123FB60FB680093022375
:1037100000223021386801F01BFC0346002B01D049
:1037200001F0A3F83B691B6B002B01D101F09DF860
:103730003B691A6B7B681340002B01D101F095F8AF
:103740007968386901F0F0F978617B69002B02D162
:103750006FF08B0307E07B69183330221946386815
:1037600000F0DCFF002318461837BD4680BD00BFBF
:10377000EC36002080B58AB002AFF860B9607A609C
:103780003B600023FB61F86801F005FBF861FB6911
:10379000002B01D101F069F80123BB61FB699B6932
:1037A000002B01DA01F061F8BB68032B01D901F0AD
:1037B0005CF8FB69BA680A3253F82230002B01D159
:1037C000002339E0BB69009302230022396878683E
:1037D00001F0BEFB0346002B01D001F046F8FB6967
:1037E000BA680A3253F822303A68934228BF134627
:1037F0007B61FB69BA68093253F832307A6919463D
:10380000786800F08BFFFB69BA68093253F8322000
:103810007B69D118FB69BA68093243F83210FB6939
:10382000BA680A3253F822207B69D11AFB69BA6858
:103830000A3243F822107B6918462037BD4680BD06
:1038400080B586B000AFF860B9607A6000237B6114
:10385000F86801F0A0FA78617B69002B01D101F0D2
:1038600004F87B699B69002B01DA00F0FEFFBB685E
:10387000032B01D900F0F9FF7B69BA680A3253F8CB
:103880002230002B01D1002326E07B69BA680A327E
:1038900053F822307A689A4205D97B69BA680A32AD
:1038A00053F822307B607B69BA68093253F83220C2
:1038B0007B68D1187B69BA68093243F832107B699A
:1038C000BA680A3253F822207B68D11A7B69BA6839
:1038D0000A3243F822107B6818461837BD4680BD6F
:1038E00080B588B002AFF860B9607A603B600023B1
:1038F0007B61F86801F04FFA78617B69002B01D198
:1039000000F0B3FF01233B617B699B69002B01DA67
:1039100000F0ABFFBB68032B01D900F0A6FF7B6969
:10392000BA680E3253F822207969BB680D33DB0088
:103930000B445B68D31A3A689A4201D900F095FFAC
:103940003B690093012300223968786801F000FB8D
:103950000346002B01D000F088FF7B69BA680D3266
:1039600053F832207969BB680D33DB000B445B6888
:1039700013443A687968184600F0D0FE7A69BB684B
:103980000D33DB0013445A683B681A447969BB68FD
:103990000D33DB000B445A6000BF1837BD4680BDB5
:1039A00080B586B000AF7860396000237B6100236A
:1039B000BB60786801F0EFF938613B69002B01D1F9
:1039C00000F053FF3B69DB68FB60FB68002B01D113
:1039D00000F04BFF3B699B6913F1020F1ED0B3F15E
:1039E000FF3F1FD13B68002B02D17B687B612FE03A
:1039F0003B6813F1820F06D16FF081037B613B6955
:103A000002225A6024E03B6813F1830F03D16FF068
:103A100082037B611CE000F028FF19E03B69022271
:103A20005A6015E03B699B69002B0FDB3B687B61AB
:103A3000386901F0E1FBFB681B689B6803F40073C5
:103A4000002B05D03B6902225A6001E000F00DFF17
:103A50007B6913F1810F05D13B691B6A002B01DBE8
:103A600000F003FFFFF73AFB0346BB600C4BDB683B
:103A70007969386998477861BB681846FFF73BFB5E
:103A80003B695B68022B03D1386901F02DF802E035
:103A90003B6900225A607B6918461837BD4680BDD5
:103AA000F495000080B584B000AF7860786801F0CC
:103AB000B7F8F8600821F86801F0E4FB00BF1037A0
:103AC000BD4680BD80B582B000AF00233B600023BF
:103AD0007B600F4B1B685B68103B7B607B681B6BDC
:103AE00003F00803002B01D100F0BFFEFFF7F6FA48
:103AF00003463B607B681B6B23F008027B681A63FC
:103B00003B681846FFF7F7FA00BF0837BD4680BD8F
:103B1000EC36002080B500AF03F0C8F800BF80BDD0
:103B200080B584B000AF78603960786801F033F90F
:103B3000F860FB68002B01D100F097FEFB68DB68A2
:103B40001B689B6803F40073002B01D000F08DFE0E
:103B5000FB683A685A62FB683A681A6000BF10371F
:103B6000BD4680BD80B483B000AFEFF3108372B662
:103B70007B607B6818460C37BD4680BC704780B4BC
:103B800083B000AF78607B6883F3108800BF0C3788
:103B9000BD4680BC704780B48BB000AF78607B6856
:103BA0001B68FB61FB699B699A00FB691344303316
:103BB000BB617B6810337B6108237B62FB699B6878
:103BC00003F40073002B05D1FB69DB699B007A6A63
:103BD00013447B627B699A687B6A073323F007038F
:103BE0001A447B699A607B691A687B699B68D21A60
:103BF0007B691A607B691B683B61FB69DA683B691A
:103C00001A603B6900225A603B690833FB60FB691C
:103C10009B6803F40073002B1DD100233B6211E06D
:103C20003A6A13465B001344DB001A46BB6913442F
:103C300019693B6A9B00FA6813440A461A603B6A9A
:103C400001333B62FB69DA693B6A9A42E8D8FB6957
:103C5000DA693B695A607B683A69DA6000BF2C37E1
:103C6000BD4680BC7047000080B586B000AF78606C
:103C7000396000237B6100233B610023FB603B68CC
:103C8000002B0AD07B68002B07D07B681B68002BB9
:103C900003D07B685B68002B02D16FF0800340E0AB
:103CA0007B685B687B617B681B685B693B61FFF7D6
:103CB00059FF0346FB607B699A6C3B68C3F88C2014
:103CC0007B693A689A647B691A6B3B691A437B6922
:103CD0001A637B69DA6A3B691340002B11D07B6958
:103CE00003F134007B691A6B7B69DB6A1340194668
:103CF00000F036FB7B69DA6A3B69DB431A407B697B
:103D0000DA62FB681846FFF73AFF3B681033074A50
:103D100012681146184600F007FB3B6801225A6002
:103D2000002318461837BD4680BD00BFEC36002082
:103D300080B582B000AF786039607B6810333A6834
:103D40001146184600F00CFB002318460837BD4604
:103D500080BD000080B584B000AF786039607B68BA
:103D60001B68FB607B689B6A43F008027B689A6271
:103D70007B689A6A3B681A437B689A627B68294A27
:103D80005A637B6800229A637B68002B02D07B68B1
:103D900000229A64FB6828331A68FB681B69134485
:103DA00023F007027B681A61FB6828331B6807331E
:103DB00023F007027B685A617B6800229A617B6866
:103DC0000022DA617B6800221A627B68164A5A6216
:103DD0007868FFF7E0FEFB689B68DAB27B6883F8DF
:103DE0003C207B68002283F83D207B680022DA8734
:103DF0007B6803F110027B681A64FB685B68002B28
:103E000003D17B681033094A13607B683C336FF041
:103E100001020749184600F01FFA00BF1037BD46DF
:103E200080BD00BF6A626F73EDEEEEEEE8360020F3
:103E30006D17000080B582B000AF0D4800F05AFA4F
:103E400078600B4B1B685B68103B3B603B681A68F3
:103E50003B685B681946104601F0D8FF0346002B0B
:103E600001D000F002FD7B6818460837BD4680BDD2
:103E7000EC36002080B584B000AF78603960002354
:103E8000BB60FFF76FFE0346BB607B681B6B3A6845
:103E90001340FB60FB68002B0AD17B683A68DA624A
:103EA0007B683433074A12681146184600F03CFA22
:103EB000BB681846FFF763FEFB6818461037BD461F
:103EC00080BD00BFEC36002080B582B000AF7860C6
:103ED0007B6803F134007B681A6B7B68DB6A1340F4
:103EE000194600F03DFA7B680022DA6200BF08370D
:103EF000BD4680BD80B483B000AF78607B6803F0BE
:103F00004003002B14BF01230023DBB218460C37FB
:103F1000BD4680BC7047000080B586B000AF034648
:103F2000B9607A60FB7300237B61FB7B102B00F28E
:103F3000BE8001A252F823F07D3F0000853F0000C3
:103F400033400000933F00004940000099400000CA
:103F50006D40000057400000B53F0000D73F000013
:103F6000F33F000083400000134000001F400000AA
:103F7000AF400000254000002B400000FFF7E8F8AC
:103F800003469BE0BB681B681846FFF7E9F8034649
:103F900094E0BB681B681846BB6804331968BB68AB
:103FA00008331B681A46BB680C331B68FFF7FCF824
:103FB00078617FE0BB681B681846BB6804331968EA
:103FC000BB6808331B681A46BB680C331B68FFF7D5
:103FD000D1FB034672E0BB681B681846BB6804331C
:103FE0001968BB6808331B681A46FFF729FC0346AB
:103FF00064E0BB681B681846BB6804331968BB687B
:1040000008331B681A46BB680C331B68FFF768FC53
:1040100050E0BB681B681846FFF744FD4AE0FFF715
:1040200051FD47E0FFF776FD44E0FFF78AF80346CD
:1040300044E0BB681A68BB6804331B681946104625
:10404000FFF756FA786135E0BB681B681846FFF742
:10405000BDFA78612EE0BB681B681A46BB68043362
:104060001B6819461046FFF75BFD23E0BB681A6822
:10407000BB6804331B6819461046FFF72BFB034649
:104080001CE0BB681B681A46BB6804331B681946F2
:104090001046FFF785FC0DE0BB681A68BB68043367
:1040A0001B6819461046FFF7E5FA034606E06FF075
:1040B000830303E07869FFF72AF87B69184618370D
:1040C000BD4680BD80B586B000AFF860B9607A604B
:1040D0000023FB75FB683B61BB6803F00803002B02
:1040E00006D0BB6803F00403002B01D07B683B6162
:1040F000B868FFF7FFFE0346002B06D03B69183374
:104100001B68023B1B78FB7501E000F0AEFBBB684F
:1041100003F00803002B0CBF01230023DAB297F948
:104120001730DBB2DB09DBB25340DBB2002B01D02E
:1041300000F09BFBFB7D402B0AD0412B0CD100F003
:1041400091FFB860144BB968184600F0C1FB1EE03F
:10415000386900F097FA1AE00F4AFB68D31A082B67
:1041600001D900F082FBFB7DBA6839691846FFF778
:10417000D3FE03461A463B691A6000F01BF802465C
:10418000064B1B689A4201D000F0CAFB00BFBB6817
:1041900018461837BD4680BD000C0020EC360020C4
:1041A00041DF704700BF80B500AF00F05EFB00BF8D
:1041B00080BD000080B483B000AF0A4B1B687B60F9
:1041C00002E07B689B687B607B68002B03D07B6888
:1041D0005B78012BF5D17B6818460C37BD4680BC57
:1041E000704700BFF436002080B485B000AF78601F
:1041F00039607B681B68002B06D03B681A787B68A7
:104200001B681B789A4207D87B681A683B689A60DB
:104210007B683A681A6019E07B681B68FB6002E003
:10422000FB689B68FB60FB689B68002B06D03B68C3
:104230001A78FB689B681B789A42F1D8FB689A68E9
:104240003B689A60FB683A689A6000BF00BF143709
:10425000BD4680BC7047000080B584B000AFF860F8
:10426000B9607A60FB68002B00D1FEE7F968094865
:10427000FFF7BAFFFB685868B9687B68002200F056
:104280005DFB0121F86800F007F800BF1037BD465C
:1042900080BD00BFF036002080B483B000AF7860EE
:1042A00039607B68002B00D1FEE73B68DAB27B689F
:1042B0005A707B685B78012B0ED10C4B1B68002B6E
:1042C00006D07B681A78094B1B681B789A4203D288
:1042D000064A7B68136004E0054B1B68034A1360C1
:1042E00000BF00BF0C37BD4680BC7047F4360020CD
:1042F000F036002080B584B000AF7860FFF75AFF39
:10430000F86000F00DFB7B68002B02D07B68FA6838
:104310001A60FB685B68184600F03FFB03461846CE
:104320001037BD4680BD000080B582B000AF786018
:1043300039607B68002B04D07B681B68074A934276
:1043400000D0FEE77B683A685A6002213868FFF7C0
:10435000A3FF00BF0837BD4680BD00BF6A626F7310
:1043600080B582B000AF786039607B68002B04D0E4
:104370007B681B68104A934200D0FEE77B685B684D
:10438000002B14D07B685B685B78022B0FD17B68B5
:104390005B6801211846FFF77FFF7B685B685B68FD
:1043A0003968184600F09CFA7B6800225A6000BF0A
:1043B0000837BD4680BD00BF6A626F7380B483B0AA
:1043C00000AF03463960FB7197F90730002B0ADB19
:1043D0003B68DAB20C4997F907305201D2B20B446C
:1043E00083F800230AE03B68DAB20849FB7903F05E
:1043F0000F03043B5201D2B20B441A7600BF0C37B4
:10440000BD4680BC704700BF00E100E000ED00E069
:1044100070B572B61446EFF30B855FF0000C002AFE
:104420001FBF8CF30B886C46954683F30B880D4AAF
:104430000123136062B60E46FEF7D2FD72B6314616
:10444000FEF7F8FD5FF0000C002C1EBF8CF30B880C
:10445000A54685F30B88034C0025256062B670BD28
:1044600000BF0000F8360020402010EA0E0018D0EF
:1044700001B500F057FEBDE80440884211D072B685
:10448000EFF30982EFF30B8322E9F00F80E81C4081
:1044900091E81C40B2E8F00F82F3098883F30B889F
:1044A00062B6704700BF0000EFF308807146EFF37B
:1044B0000982EFF30B830CB406B4FFF703FE8646C4
:1044C00006BC0CBC00F0080001F00801401A01DC39
:1044D0000DDB70470CB42DE9F00F084C254626463D
:1044E0002746A046A146A246A34630B4704730BC3A
:1044F000BDE8F00F06BC704700BF0000A5EDF5FE5B
:1045000080B584B000AF174BFB60FB68DB68BB6015
:10451000BB68DB431B0C1B047B60BB689AB27B68E7
:10452000134343F48042FB68DA6000216FF00B0014
:10453000FFF744FF00216FF00A00FFF73FFF002163
:104540006FF00800FFF73AFF00216FF00400FFF75B
:1045500035FF03216FF00100FFF730FF00BF103778
:10456000BD4680BD00ED00E080B400AF00BFBD4699
:1045700080BC7047EFF3148030F0040080F314889F
:10458000BFF36F8F704700BF90B583B000AF0A4C88
:1045900001F0BCFE0346A36001F0C2FE03467B604F
:1045A0007B6883F3888800BF01F0C6FE0346184687
:1045B0000C37BD4690BD00BF00ED02E0FFF7E4FF01
:1045C000009A0B4B9A4210D1044601229443204694
:1045D000214622462346254626462746A046A14692
:1045E000A246A346A446A6460447FEE700BF000035
:1045F000A5EDF5FE80B500AF00214FF0FF3004F0CF
:1046000061FF0346002BF7D130BFF5E780B586B0D8
:1046100000AF0346FB714FF0FF333B610023FB60AB
:1046200000F07AFCB86000237B6114E00E4A7B69DD
:1046300052F83330BA689A420AD1FA790A497B694A
:10464000DB000B445B689A4202D100233B6106E029
:104650007B6901337B617A69FB689A42E6D33B69E7
:1046600018461837BD4680BD0C96000080B400AFD8
:10467000034B01221A6000BFBD4680BC704700BFDB
:10468000FC36002080B58AB002AF78607B681B687A
:10469000FB777B6804331B68BB617B6808331B684E
:1046A000FB8201233B61F98A3B69009302230022CC
:1046B000B86900F04DFC0346002B03D07B68032251
:1046C0001A6026E0144B1B68012B03D07B68032281
:1046D0001A601EE0FB7F1846FFF798FF0346002B89
:1046E00003D07B6803221A6013E0FB8A032B03D8F4
:1046F0007B6803221A600CE0BB69FB60FB6842F236
:1047000016021A80FB6804225A807B6800221A6015
:1047100000BF2037BD4680BDFC36002080B487B086
:1047200000AFF860B9607A60FB687B61BB683B6191
:104730000AE03A69531C3B617B69591C7961127824
:104740001A707B68013B7B607B68002B15D07B690E
:1047500003F00103002BECD13B6903F00103002BB4
:10476000E7D10AE03A69931C3B617B69991C796146
:1047700012881A807B68023B7B607B68012B15D90D
:104780007B6903F00203002BECD13B6903F00203C9
:10479000002BE7D10AE03A69131D3B617B69191DC3
:1047A000796112681A607B68043B7B607B68032B2D
:1047B000F1D807E03A69531C3B617B69591C796168
:1047C00012781A707B685A1E7A60002BF2D1FB684F
:1047D00018461C37BD4680BC704780B487B000AF18
:1047E000F860B9607A60FB683B61BB68DBB21A466F
:1047F00013461B0213441B041A46BB68DBB21B02A0
:104800001343BA68D2B213437B6108E03B695A1C78
:104810003A61BA68D2B21A707B68013B7B607B68F0
:10482000002B0DD03B6903F00303002BEED107E012
:104830003B691A1D3A617A691A607B68043B7B60A8
:104840007B68032BF4D805E03B695A1C3A61BA68CF
:10485000D2B21A707B685A1E7A60002BF4D1FB68C2
:1048600018461C37BD4680BC704780B500AF02F0CB
:104870001DFA00BF80BD80B485B000AF78607B6852
:10488000FB60FB6883F30B8800BF00BF1437BD4695
:1048900080BC704780B483B000AF78607B6803F061
:1048A0000703002B00D0FEE77B68083B7B607B683A
:1048B000064A1A607B6804331A46044B13607B680F
:1048C00018460C37BD4680BC704700BFA5EDF5FE0D
:1048D0008546024A014B0CB4084700BFA5EDF5FE22
:1048E00080B485B000AF786039607B68FB60FB689E
:1048F0001B69002B09D0FB681B691A463B681360D3
:10490000FB684FF0EE325A6104E0FB681B681A4600
:104910003B68136200BF1437BD4680BC704700007F
:1049200005484FF080510160BFF34F8FBFF36F8F89
:10493000704700BF1846000004ED00E080B586B067
:1049400000AFF860B9607A603B60FB681B687B6110
:104950007869FFF79FFF03463B613B69403B3B6142
:10496000402200213869FFF738FF7A683B691A62F4
:104970003B69BA689A633B693A685A633B694FF08E
:104980008072DA63FB686FF00202DA603A69FB68F2
:104990001A6000BF1837BD4680BD80B586B000AF35
:1049A00078607B687B617B691B6820333B617B6936
:1049B0005B681846FFF75FFF3B69FB60FB6883F3AA
:1049C000098800BF7B69DB6818461837BD4680BD83
:1049D00080B483B000AFEFF3108372B67B607B6866
:1049E00018460C37BD4680BC704780B483B000AF1A
:1049F00078607B6883F3108800BF0C37BD4680BCAD
:104A00007047000080B485B000AF78600B4B1B6826
:104A1000013303F00703094A13607B68084A1268F0
:104A20009B1ADA00054B1B6813440133FB60FB68DB
:104A300018461437BD4680BC704700BF383C002084
:104A4000242F002080B485B000AF78607B68002BF5
:104A500001D1002307E07B68013BDB08044A1268B0
:104A60001344FB60FB6818461437BD4680BC704792
:104A7000242F002080B582B000AF0C4B1B68184675
:104A800000F06CFE78607B68002B01D1002308E009
:104A9000902200217868FFF7A0FE7B6800225A6010
:104AA0007B6818460837BD4680BD00BF242F002014
:104AB00080B582B000AF7860094B1B6879681846F2
:104AC00000F083FE034683F00103DBB2002B01D02C
:104AD000044B00E0002318460837BD4680BD00BFE8
:104AE000242F00200500008080B584B000AF7860DE
:104AF0000023FB607B68002B00D1FEE7FFF768FF17
:104B00000346FB60074B1B687968184600F049FEB6
:104B1000FB681846FFF769FF002318461037BD46AB
:104B200080BD00BF242F002080B588B000AF786022
:104B3000396000237B610023FB6000233B61FFF7AA
:104B400047FF0346FB607B684833BB617B689B6C17
:104B5000FB6112E0FB69DB681B685B693A689A429B
:104B600004D1BB697B613B6901333B61FB698C33D9
:104B7000BB61FB69D3F88C30FB61FB69002BE9D189
:104B80007B69002B12D07B691B68FB617B691B680A
:104B9000D3F88C207B691A603B69012B06D17B68B6
:104BA0001A6B3B68DB431A407B681A63FB68184644
:104BB000FFF71BFFFB6918462037BD4680BD00008C
:104BC00080B485B000AF78600023FB60134B5B6856
:104BD000BB601AE0BB681B685B687A689A420FD1B9
:104BE000FB68002B0AD0BB689A68FB689A600B4B85
:104BF0005A68BB689A60094ABB685360BB6808E0A2
:104C0000BB68FB60FB689B68BB60BB68002BE1D1A5
:104C1000002318461437BD4680BC7047003700207B
:104C200080B485B000AF78600B4B5B68FB600AE036
:104C3000FB681B685B687A689A4201D1FB6806E0F2
:104C4000FB68DB6CFB60FB68002BF1D1002318468E
:104C50001437BD4680BC7047E036002080B483B076
:104C600000AF786039607B68002B00D1FEE77B687D
:104C70001B689B6803F48063002B03D0B3F5806F3F
:104C800008D00FE07B681B68DB683A689A420BD952
:104C90000A4B0DE07B681B68DB683A689A4205D0D6
:104CA000064B05E0054B03E000BF00E000BF00231A
:104CB00018460C37BD4680BC704700BF030000801B
:104CC00080B588B000AFF860B9601346FB7100236F
:104CD000BB61BB68002B00D1FEE7FB79002B08D03D
:104CE000BB681B689B6803F48073002B2DD1194BA4
:104CF0002CE0194B1B685B68103BBB61BB69002B48
:104D000001D1FFF7B2FDBB691B6830337B61002323
:104D1000FB610AE0FB699B007A6913441B68FA682F
:104D20009A4209D0FB690133FB61BB691B689A6930
:104D3000FB699A42EED800E000BFBB691B689A6924
:104D4000FB699A4201D1034B00E00023184620374B
:104D5000BD4680BD05000080EC36002080B584B0E3
:104D600000AF786039607868FFF76CFEF860F8682B
:104D7000FFF79EFE0346002B01D0002307E0FB68EF
:104D80001B6A3A689A4201D0002300E0FB6818468B
:104D90001037BD4680BD80B584B000AF78607868BC
:104DA000FFF750FEF860F868FFF782FE0346002B1D
:104DB00001D000230DE000F0AFF8B860FB68DB68BD
:104DC0005B681B685B68BA689A4201D0002300E008
:104DD000FB6818461037BD4680BD000080B586B020
:104DE00000AFF860B9607A603B60FB68002B00D1CF
:104DF000FEE7BB68002B00D1FEE77B6A002B03D1E6
:104E0000BB6A002B00D0FEE7FB6A002B03D13B6B93
:104E1000002B00D0FEE7BB6A042B00D9FEE73B6BFA
:104E2000042B00D9FEE7BA6A3B6B1344042B00D96C
:104E3000FEE7FB681833302200211846FFF7CDFC4F
:104E4000FB68334A1A61FB6800225A61FB68BA6842
:104E5000DA60304B1B685B68103B1A46FB689A604F
:104E6000FB687A6BC3F88820FB683A6A1A62FB68B1
:104E70003A689A6100237B6116E07B69DB007A6AFD
:104E800013445968FB687A690A3243F822107B6937
:104E9000DB007A6A13441968FB687A69093243F8BF
:104EA00032107B6901337B617A69BB6A9A42E4D331
:104EB00000237B611DE07B69DB00FA6A13445968BB
:104EC000FB687A690E3243F822107B69DB00FA6ACC
:104ED00013441968FB687A690D3243F83210FA6896
:104EE0007B690D33DB00134400225A607B69013378
:104EF0007B617A693B6B9A42DDD3FB687A68DA6141
:104F0000FB681A68FB685A6200BF1837BD4680BD4F
:104F10006A626F73EC36002080B483B000AF0B4B35
:104F20001B685B68103B7B607B68002B07D07B684D
:104F30001B68002B03D07B681B685B6801E04FF0A7
:104F4000FF3318460C37BD4680BC7047EC36002056
:104F500080B586B000AFF860B96011461A460B46BE
:104F6000FB711346BB7100237B61BB68002B01D131
:104F7000002337E0FB68002B01D11C4B32E0BB68FB
:104F8000DA43FB689A4201D2194B2BE0BB79022B22
:104F900004D17B6943F006037B6103E07B6943F046
:104FA00002037B613B6A002B04D17B6943F0080359
:104FB0007B6103E07B6923F008037B61FB79002BB5
:104FC00003D07B6943F020037B61FB687A69B96891
:104FD000184601F00BF838613B69002B01D1002322
:104FE00000E0034B18461837BD4680BD0100008025
:104FF0000400008080B582B000AF0B4B1B685B687B
:10500000103B7B607B68002B01D1FFF72EFC7B6897
:105010001B685B68002B0CBF01230023DBB2184622
:105020000837BD4680BD00BFEC36002080B584B097
:1050300000AF0346FB71FB79002B03D000F0FEFBB1
:10504000F86002E0FFF768FFF860FB79FA68D20FBA
:10505000D2B2934201D0FFF708FCFB681846103724
:10506000BD4680BD80B584B000AF0023FB60264BF9
:1050700018680823902240F2AC4100F023FB234B38
:1050800000225A60224B00225A6000F0DFFB1F48CA
:1050900000F068F9B860BB68002B27D0BB681B68BC
:1050A0007B607B68DB69002B06D08023194A184996
:1050B000B86800F0F9F9F8607B685B6A002B02D0F1
:1050C000B86800F0A2FABB681A68BB6804331946D6
:1050D000104600F007FE0346002B01D0FFF7C5FB8A
:1050E0000D4B1B68F968B8689847D0E700BF0B4BB9
:1050F0001B681A460A4B1A60074B5B6898470346C1
:1051000018461037BD4680BD242F0020E036002011
:105110000037002008370020F4950000442F0020BD
:105120008837002080B58AB000AFFFF743F8786277
:1051300000237B602D4B1B685B683B623B6ABB6056
:105140003B6AFB60294B1B685B68103BFB617B6A19
:105150003C3BBB61264B1B68012B33D07B6A002B89
:1051600030D0FA69BB699A422CD03B6A5B6803F184
:105170002002EFF309837B617B699A4201D9FFF733
:1051800074FBFFF725FC03467B60FB695A68BB692B
:105190005B689A420CD0BB691A68BB695B681946A8
:1051A000104600F033FE0346002B01D0FFF75DFBF5
:1051B0007B6A5B68FB600D4A7B6A13607B681846FC
:1051C000FFF713FC0B4B1B68002B08D0BB69DB6897
:1051D000002B04D0BB69DA68064B1B681A60D7E95C
:1051E0000223104619462837BD4680BDEC36002004
:1051F000F83600208837002080B485B000AF786092
:105200007B681B691E4A934205D07B685B695B78AB
:10521000022B00D0FEE70023FB6027E07B68FA68E2
:105220000E3253F82230002B1CD07B68D3F8882034
:10523000FB68DB0013441A687B68F9680D3153F88A
:1052400031309A4200D0FEE77B68D3F88820FB68B3
:10525000DB001A447968FB680D33DB000B445B68A4
:10526000536000E000BFFB680133FB60FB68032B69
:10527000D4D900BF00BF1437BD4680BC704700BF03
:105280006565212180B584B000AF78603960002366
:10529000BB607B68FB60FB68002B01D1FFF7E5FA80
:1052A000FFF796FB0346BB60FB681A6B3B681A432B
:1052B000FB681A63FB68DA6A3B681340002B03D073
:1052C000054B5B69F8689847BB681846FFF78DFB8C
:1052D00000BF1037BD4680BDF495000080B582B098
:1052E00000AF0A4B1B687B60084B1B685033074AB2
:1052F0001360064B1A68064B1B689A4201D9FFF7E8
:10530000B4FA7B6818460837BD4680BD302F0020B0
:10531000342F002080B584B000AF78600F4B1B683D
:10532000FB607B68002B01D1002313E07A681346F1
:105330005B0013449B001A46084B1B681344074A42
:105340001360064B1A68064B1B689A4201D9FFF797
:105350008CFAFB6818461037BD4680BD382F0020F8
:105360003C2F002080B584B000AF78607B68002BB4
:1053700001D1FFF77AFA494B1B6813F1290F07D8BF
:10538000464B1B6803F12802454B1B689A4201D328
:1053900000237FE0414B1B68FB60404B1B68D943F7
:1053A000FB689869FB68DA6913465B0013445B008D
:1053B0001844FB681A6A13465B0013441844FB68E0
:1053C0005A6A13469B00134403440C339B009942D2
:1053D0001DD3FB689969FB68DA6913465B001344C7
:1053E0005B001944FB681A6A13465B0013441944B6
:1053F000FB685A6A13469B0013440B440C339A0013
:10540000264B1B681A44264B1B689A4201D9FFF7AA
:105410002CFAFB681B681B0C1B04224A934201D028
:10542000FFF723FAFB681B689BB2B3F5817F01D3BA
:10543000FFF71BFAFB685B68002B01DAFFF715FA30
:10544000FFF74CFFB860BB68FA681A60FB6899699F
:10545000FB68DA6913465B0013445B001944FB6880
:105460001A6A13465B0013441944FB685A6A1346D0
:105470009B0013440B440C339A00084B1B681344E5
:10548000064A13607B685A68BB68DA647B68BA684E
:105490005A60BB6818461037BD4680BD282F0020D3
:1054A0002C2F002000005F5F80B58CB000AFF8604B
:1054B000B9607A603B600023BB62FB68002B02D0BE
:1054C000BB68002B01D1FFF7D0F9FB681B687B623A
:1054D0007B6A9B699A007B6A134430333B627B6A28
:1054E000DB691846FFF716FFF8610023FB627EE0D8
:1054F000FA6A13465B001344DB001946FA6A134646
:105500005B0013449B001A46FB6913443A6A0A4441
:105510001A60FA6A13465B0013449B001A46FB6943
:105520001344FA685A60FA6A13465B0013449B00FE
:105530001A46FB69134400229A60FA6A13465B001C
:105540001344DB001A463B6A13445B69BA6A13438F
:10555000BB62FA6A13465B001344DB001A463B6ADF
:1055600013449B68BB61BB6903F40073002B26D016
:105570007B68002B05D03B68002B02D03B68802B5A
:1055800001D0FFF772F9BB69DBB27B617B691F2B2E
:1055900006D87B699B007A6813441B68002B01D0F6
:1055A000FFF763F9FA6A13465B0013449B00194640
:1055B0007B699B007A681344FA690A441A60FA6AA4
:1055C00013465B0013449B001A46FB691344BA68F8
:1055D00052689A60FA6A13465B0013449B001A46AD
:1055E000FB691A44BB685A60FB6A0133FB627B6A41
:1055F000DB69FA6A9A4203D2FB69002B7FF478AF29
:10560000BB6A18463037BD4680BD80B586B000AF56
:1056100078607B68002B01D1FFF727F97B681B6856
:10562000FB60FB689B699A00FB68D118FB68DA692C
:1056300013465B001344DB001944FB681A6A1346E7
:105640005B0013449B000B4430337B6100233B61C0
:105650002EE07B689A6A7B691B691A437B689A62B1
:105660007B691B687969786898470346002B01D0ED
:10567000FFF7FBF8FB681B689BB2B3F5807F05D191
:105680007B69DB68184600F0A3FE0BE0FB681B6833
:105690009BB240F20112934204D17B69DB68184649
:1056A00000F0A4FE7B6914337B613B6901333B61ED
:1056B000FB685B6A3A699A42CBD300BF00BF1837D8
:1056C000BD4680BD80B586B000AFF860B9607A6035
:1056D0003B60FB68002B02D03B68002B01D11E4BC6
:1056E00035E07B6804333A6802FB03F30C33BA6895
:1056F0009A4201D0184B2AE0BA680021F868FFF7F7
:105700006CF8FB68002B02D0FB6800221A60FB6873
:105710000C337B6100233B610EE0FB681A687B69F8
:105720001A60FB687A691A607A697B6813440433EB
:105730007B613B6901333B613A693B689A42ECD338
:10574000FB687A685A60FB683A689A6000231846DA
:105750001837BD4680BD00BF0100008080B485B011
:1057600000AF78607B68002B01D1002314E07B68D8
:10577000002B03D07B681B68002B01D100230BE0BA
:105780007B681B68FB60FB681A687B681A60FB68B3
:1057900000221A60FB68043318461437BD4680BCEB
:1057A000704780B485B000AF786039603B68043BD7
:1057B000FB607B681A68FB681A607B68FA681A608D
:1057C00000BF1437BD4680BC704780B489B000AFBD
:1057D000786039607B680C33FB617B685B680433FD
:1057E000BB617B689B687B61BB697A6902FB03F3E1
:1057F000FA6913443B610023FB603B68FA699A42F3
:1058000003D83B683A699A4201D8002311E03B680B
:10581000043BFB60FA68FB69D31ABA69B3FBF2F286
:10582000B96901FB02F29B1A002B01D0002300E0B2
:10583000012318462437BD4680BC704780B400AFB2
:105840004FF0FF331846BD4680BC704780B400AFB0
:1058500000BFBD4680BC70470F4B02689A4206D11C
:10586000C269A3F11023A3F1EF139A4201D00120E2
:1058700070478368012BFAD8C36813B10269934259
:10588000F5D043692BB18069C01AB0FA80F04009A5
:1058900070471846704700BF55AA00FFF8B5164B71
:1058A000996829B10846FFF7D7FF08B9CB680BB153
:1058B0000120F8BD0B69002BFBD0104D104E1A686B
:1058C000AA42F5D1DA69B242F2D19A68012AEFD838
:1058D000DC68002CECD01A699442E9D05F691FB1F2
:1058E000D3F818C06745E3D08C42E1D11946002AAD
:1058F000DFD01346E3E700BF3C3C002055AA00FF81
:10590000669911EE002865D070B5374D2B68002BD5
:1059100054D0AA68002A51D08342014661D86A68EF
:10592000134498425DD2A0F120063046FFF794FF61
:10593000002856D151F8183C012B52D151F8144C83
:1059400041F8180C51F8100C002C38D0A368002B2B
:1059500035D151F81C2C63682032134420616360F8
:1059600000B1C460202200213046FBF73FFE2069D1
:10597000F0B18368E3B9264642687368134402694C
:10598000203373603261D6E9051331B38B6103B103
:105990005961416983697161B361E1B18E61B36934
:1059A00003B15E6102B1D66020220021FBF71EFE2A
:1059B0002B699B0702D5FFF771FF90B970BD10B13D
:1059C0008368002BD8D0EB6841F8083C03B15E61D6
:1059D000EE60EDE77047EE60E2E7002BD9D0EB60B8
:1059E000D6E70120FAF7A2FC3C3C00202DE9F84F55
:1059F0003E4D2B68EC68002B40D0AB68002B3DD0AF
:105A000000283BD0002939D001FB00F6B6FBF0F0AE
:105A1000884233D1301D31D8B10733D026F003018D
:105A2000043114B92BE0A4694CB363688B42FAD3F8
:105A3000D4F808C0BCF1000F55D1A0695B1A232B24
:105A40008146676920D80123A360002F47D0B86141
:105A5000A06900B1476100232A696361D207A3618D
:105A600003D5FFF71BFF00283DD12034324600212B
:105A70002046FBF7BBFD2046BDE8F88F00242046FA
:105A8000BDE8F88F3146CCE7D4F8108001F1200E44
:105A9000DFF85CB0DFF85CA004EB0E02203BC2E94B
:105AA000013CC2E9034844F80EB0C2F81CA0B8F1AA
:105AB000000F01D0C8F80C20C2F81890576187B1C8
:105AC000BA61906900B14261002361602969226175
:105AD0000122C4E90533CB07A260C6D5C1E7E8605F
:105AE000B7E7EA60EEE70120FAF720FC3C3C002033
:105AF00055AA00FF669911EE38B50D461422002113
:105B000004461148FBF772FD1049114803F056FC9A
