:020000040001F9
:10000000E8930020AD3E01009D9D0100653E01008A
:10001000653E0100653E0100653E0100653E010050
:10002000000000000000000000000000353B01005F
:10003000653E010000000000D53A0100653E010068
:10004000C53B0100C53B0100C53B0100C53B0100AC
:10005000C53B0100C53B0100C53B0100C53B01009C
:10006000C53B0100C53B0100C53B0100C53B01008C
:10007000C53B0100C53B0100C53B0100C53B01007C
:10008000C53B0100C53B0100C53B0100C53B01006C
:10009000C53B0100C53B0100C53B0100C53B01005C
:1000A000C53B0100C53B0100C53B0100C53B01004C
:1000B000C53B0100C53B0100C53B0100C53B01003C
:1000C000C53B0100C53B0100C53B0100C53B01002C
:1000D000C53B0100C53B0100C53B0100C53B01001C
:1000E000C53B0100C53B0100C53B0100C53B01000C
:1000F000C53B0100C53B0100C53B0100C53B0100FC
:10010000C53B0100C53B0100C53B0100C53B0100EB
:10011000C53B0100C53B0100C53B0100C53B0100DB
:10012000C53B0100C53B0100C53B0100C53B0100CB
:10013000C53B0100C53B0100C53B0100C53B0100BB
:10014000C53B0100C53B0100C53B0100C53B0100AB
:10015000C53B0100FFFFFFFF4FF0FF0C1CEAD05230
:100160001EBF1CEAD15392EA0C0F93EA0C0F6FD01A
:100170001A4480EA010C400218BF5FEA41211ED0F8
:100180004FF0006343EA501043EA5111A0FB0131E4
:100190000CF00040B1F5000F3EBF490041EAD371B9
:1001A0005B0040EA010062F17F02FD2A1DD8B3F135
:1001B000004F40EBC25008BF20F00100704790F0A4
:1001C000000F0CF0004C08BF49024CEA502040EAF6
:1001D00051207F3AC2BFD2F1FF0340EAC2507047BC
:1001E00040F400004FF00003013A5DDC12F1190FFA
:1001F000DCBF00F000407047C2F10002410021FA6C
:1002000002F1C2F1200200FA02FC5FEA310040F183
:10021000000053EA4C0308BF20EADC70704792F0FC
:10022000000F00F0004C02BF400010F4000F013A34
:10023000F9D040EA0C0093F0000F01F0004C02BF2F
:10024000490011F4000F013BF9D041EA0C018FE79E
:100250000CEAD15392EA0C0F18BF93EA0C0F0AD0A4
:1002600030F0004C18BF31F0004CD8D180EA0100CA
:1002700000F00040704790F0000F17BF90F0004F63
:10028000084691F0000F91F0004F14D092EA0C0F45
:1002900001D142020FD193EA0C0F03D14B0218BFD8
:1002A000084608D180EA010000F0004040F0FE401E
:1002B00040F40000704740F0FE4040F440007047BA
:1002C00081F0004102E000BF83F0004330B54FEA07
:1002D00041044FEA430594EA050F08BF90EA020F74
:1002E0001FBF54EA000C55EA020C7FEA645C7FEA07
:1002F000655C00F0E2804FEA5454D4EB5555B8BF2A
:100300006D420CDD2C4480EA020281EA030382EA9A
:10031000000083EA010180EA020281EA0303362D2C
:1003200088BF30BD11F0004F4FEA01314FF4801CFF
:100330004CEA113102D0404261EB410113F0004F11
:100340004FEA03334CEA133302D0524263EB4303C8
:1003500094EA050F00F0A780A4F10104D5F1200E66
:100360000DDB02FA0EFC22FA05F2801841F10001C1
:1003700003FA0EF2801843FA05F359410EE0A5F195
:1003800020050EF1200E012A03FA0EFC28BF4CF0C6
:10039000020C43FA05F3C01851EBE37101F000457C
:1003A00007D54FF0000EDCF1000C7EEB00006EEB89
:1003B0000101B1F5801F1BD3B1F5001F0CD3490813
:1003C0005FEA30004FEA3C0C04F101044FEA44526A
:1003D00012F5800F80F09A80BCF1004F08BF5FEAF1
:1003E000500C50F1000041EB045141EA050130BDD1
:1003F0005FEA4C0C404141EB0101013C28BFB1F5E3
:10040000801FE9D291F0000F04BF01460020B1FA2D
:1004100081F308BF2033A3F10B03B3F120020CDA00
:100420000C3208DD02F1140CC2F10C0201FA0CF0DE
:1004300021FA02F10CE002F11402D8BFC2F1200C43
:1004400001FA02F120FA0CFCDCBF41EA0C019040F9
:10045000E41AA2BF01EB0451294330BD6FEA040442
:100460001F3C1CDA0C340EDC04F11404C4F120022D
:1004700020FA04F001FA02F340EA030021FA04F33F
:1004800045EA030130BDC4F10C04C4F1200220FA96
:1004900002F001FA04F340EA0300294630BD21FAD4
:1004A00004F0294630BD94F0000F83F4801306BF9A
:1004B00081F480110134013D4EE77FEA645C18BF8E
:1004C0007FEA655C29D094EA050F08BF90EA020F25
:1004D00005D054EA000C04BF1946104630BD91EA1D
:1004E000030F1EBF0021002030BD5FEA545C05D120
:1004F0004000494128BF41F0004130BD14F580045F
:100500003CBF01F5801130BD01F0004545F0FE41D2
:1005100041F470014FF0000030BD7FEA645C1ABF07
:10052000194610467FEA655C1CBF0B46024650EA3E
:10053000013406BF52EA033591EA030F41F400216A
:1005400030BD00BF90F0000F04BF0021704730B5F0
:100550004FF4806404F132044FF000054FF00001C5
:1005600050E700BF90F0000F04BF0021704730B586
:100570004FF4806404F1320410F0004548BF40425B
:100580004FF000013EE700BF42004FEAE2014FEAB0
:1005900031014FEA02701FBF12F07F4393F07F4F8B
:1005A00081F06051704732F07F4208BF704793F08E
:1005B0007F4F04BF41F40021704730B54FF46074A1
:1005C00001F0004521F000411CE700BF50EA0102A4
:1005D00008BF704730B54FF000050AE050EA01024D
:1005E00008BF704730B511F0004502D5404261EBBD
:1005F00041014FF4806404F132045FEA915C3FF4FE
:10060000D8AE4FF003025FEADC0C18BF03325FEA9A
:10061000DC0C18BF033202EBDC02C2F1200300FA4B
:1006200003FC20FA02F001FA03FE40EA0E0021FA70
:1006300002F11444BDE600BF70B54FF0FF0C4CF45E
:10064000E06C1CEA11541DBF1CEA135594EA0C0F10
:1006500095EA0C0F00F0DEF82C4481EA030621EA4B
:100660004C5123EA4C5350EA013518BF52EA033586
:1006700041F4801143F4801338D0A0FB02CE4FF038
:100680000005E1FB02E506F00042E0FB03E54FF068
:100690000006E1FB03569CF0000F18BF4EF0010E60
:1006A000A4F1FF04B6F5007F64F5407404D25FEA5C
:1006B0004E0E6D4146EB060642EAC62141EA55510F
:1006C0004FEAC52040EA5E504FEACE2EB4F1FD0C51
:1006D00088BFBCF5E06F1ED8BEF1004F08BF5FEACF
:1006E000500E50F1000041EB045170BD06F0004681
:1006F00046EA010140EA020081EA0301B4EB5C042E
:10070000C2BFD4EB0C0541EA045170BD41F4801125
:100710004FF0000E013C00F3AB8014F1360FDEBF4A
:10072000002001F0004170BDC4F10004203C35DA26
:100730000C341BDC04F11404C4F1200500FA05F3A9
:1007400020FA04F001FA05F240EA020001F000424A
:1007500021F0004110EBD37021FA04F642EB0601C0
:100760005EEA430E08BF20EAD37070BDC4F10C04EA
:10077000C4F1200500FA04F320FA05F001FA04F2AE
:1007800040EA020001F0004110EBD37041F100019A
:100790005EEA430E08BF20EAD37070BDC4F12005A5
:1007A00000FA05F24EEA020E20FA04F301FA05F20D
:1007B00043EA020321FA04F001F0004121FA04F2B5
:1007C00020EA020000EBD3705EEA430E08BF20EA85
:1007D000D37070BD94F0000F0FD101F000464000BF
:1007E00041EB010111F4801F08BF013CF7D041EA41
:1007F000060195F0000F18BF704703F00046520045
:1008000043EB030313F4801F08BF013DF7D043EA15
:100810000603704794EA0C0F0CEA135518BF95EACB
:100820000C0F0CD050EA410618BF52EA4306D1D152
:1008300081EA030101F000414FF0000070BD50EA71
:10084000410606BF1046194652EA430619D094EAFB
:100850000C0F02D150EA013613D195EA0C0F05D1E5
:1008600052EA03361CBF104619460AD181EA030139
:1008700001F0004141F0FE4141F470014FF00000F1
:1008800070BD41F0FE4141F4780170BD70B54FF08C
:10089000FF0C4CF4E06C1CEA11541DBF1CEA13550C
:1008A00094EA0C0F95EA0C0F00F0A7F8A4EB0504EE
:1008B00081EA030E52EA03354FEA013100F08880E5
:1008C0004FEA03334FF0805545EA131343EA1263AE
:1008D0004FEA022245EA111545EA10654FEA002663
:1008E0000EF000419D4208BF964244F1FD0404F51C
:1008F000407402D25B084FEA3202B61A65EB030578
:100900005B084FEA32024FF480104FF4002CB6EB34
:10091000020E75EB030E22BFB61A754640EA0C00B4
:100920005B084FEA3202B6EB020E75EB030E22BFF4
:10093000B61A754640EA5C005B084FEA3202B6EB35
:10094000020E75EB030E22BFB61A754640EA9C00F4
:100950005B084FEA3202B6EB020E75EB030E22BFC4
:10096000B61A754640EADC0055EA060E18D04FEA82
:10097000051545EA16754FEA06164FEAC30343EA22
:1009800052734FEAC2025FEA1C1CC0D111F4801FEF
:100990000BD141EA00014FF000004FF0004CB6E7E8
:1009A00011F4801F04BF01430020B4F1FD0C88BF87
:1009B000BCF5E06F3FF6AFAEB5EB030C04BFB6EB92
:1009C000020C5FEA500C50F1000041EB045170BD85
:1009D0000EF0004E4EEA113114EB5C04C2BFD4EBB2
:1009E0000C0541EA045170BD41F480114FF0000E36
:1009F000013C90E645EA060E8DE60CEA135594EAB2
:100A00000C0F08BF95EA0C0F3FF43BAF94EA0C0FB4
:100A10000AD150EA01347FF434AF95EA0C0F7FF429
:100A200025AF104619462CE795EA0C0F06D152EA7D
:100A300003353FF4FDAE1046194622E750EA410661
:100A400018BF52EA43067FF4C5AE50EA41047FF472
:100A50000DAF52EA43057FF4EBAE12E74FF0FF3CD7
:100A600006E000BF4FF0010C02E000BF4FF0010CA8
:100A70004DF804CD4FEA410C7FEA6C5C4FEA430C21
:100A800018BF7FEA6C5C1BD001B050EA410C0CBF70
:100A900052EA430C91EA030F02BF90EA020F0020D2
:100AA000704710F1000F91EA030F58BF994208BF39
:100AB00090422CBFD8176FEAE37040F001007047F6
:100AC0004FEA410C7FEA6C5C02D150EA013C07D14D
:100AD0004FEA430C7FEA6C5CD6D152EA033CD3D098
:100AE0005DF8040B704700BF8446104662468C4692
:100AF0001946634600E000BF01B5FFF7B7FF0028C5
:100B000048BF10F1000F01BD4DF808EDFFF7F4FFED
:100B10000CBF012000205DF808FB00BF4DF808ED78
:100B2000FFF7EAFF34BF012000205DF808FB00BF9B
:100B30004DF808EDFFF7E0FF94BF012000205DF8BD
:100B400008FB00BF4DF808EDFFF7CEFF94BF012072
:100B500000205DF808FB00BF4DF808EDFFF7C4FF6B
:100B600034BF012000205DF808FB00BF4FEA4102BE
:100B7000B2F1E04324BFB3F5001CDCF1FE5C0DD9FB
:100B800001F0004C4FEAC0024CEA5070B2F1004F45
:100B900040EB830008BF20F00100704711F0804F48
:100BA00021D113F13872BCBF01F00040704741F40D
:100BB00080114FEA5252C2F11802C2F1200C10FA11
:100BC0000CF320FA02F018BF40F001004FEAC123F5
:100BD0004FEAD32303FA0CFC40EA0C0023FA02F399
:100BE0004FEA4303CCE77FEA625307D150EA01336F
:100BF0001EBF4FF0FE4040F44000704701F000403F
:100C000040F0FE4040F40000704700BF80F000401C
:100C100002E000BF81F0004142001FBF5FEA4103D4
:100C200092EA030F7FEA226C7FEA236C6AD04FEAD4
:100C30001262D2EB1363C1BFD21841404840414019
:100C4000B8BF5B42192B88BF704710F0004F40F4CB
:100C5000000020F07F4018BF404211F0004F41F4E7
:100C6000000121F07F4118BF494292EA030F3FD0B3
:100C7000A2F1010241FA03FC10EB0C00C3F12003C6
:100C800001FA03F100F0004302D5494260EB400055
:100C9000B0F5000F13D3B0F1807F06D340084FEAC0
:100CA000310102F10102FE2A51D2B1F1004F40EBB5
:100CB000C25008BF20F0010040EA0300704749001D
:100CC00040EB0000013A28BFB0F5000FEDD2B0FABA
:100CD00080FCACF1080CB2EB0C0200FA0CF0AABFDD
:100CE00000EBC25052421843BCBFD040184370477B
:100CF00092F0000F81F4000106BF80F40000013281
:100D0000013BB5E74FEA41037FEA226C18BF7FEA57
:100D1000236C21D092EA030F04D092F0000F08BF99
:100D20000846704790EA010F1CBF0020704712F080
:100D30007F4F04D1400028BF40F00040704712F1BF
:100D400000723CBF00F50000704700F0004343F024
:100D5000FE4040F4000070477FEA226216BF08465A
:100D60007FEA23630146420206BF5FEA412390EA1D
:100D7000010F40F4800070474FF0000304E000BF13
:100D800010F0004348BF40425FEA000C08BF7047C4
:100D900043F0964301464FF000001CE050EA010288
:100DA00008BF70474FF000030AE000BF50EA01029D
:100DB00008BF704711F0004302D5404261EB41018A
:100DC0005FEA010C02BF84460146002043F0B643AF
:100DD00008BFA3F18053A3F50003BCFA8CF2083AD4
:100DE000A3EBC25310DB01FA02FC634400FA02FCDD
:100DF000C2F12002BCF1004F20FA02F243EB0200E4
:100E000008BF20F00100704702F1200201FA02FC45
:100E1000C2F1200250EA4C0021FA02F243EB020038
:100E200008BF20EADC70704753B94AB9002908BFEF
:100E300000281CBF4FF0FF314FF0FF3000F00CB81E
:100E4000ADF1080C6DE904CE00F046F8DDF804E0E1
:100E5000DDE9022304B07047704700BF4FEA410C40
:100E60007FEA6C5C02D150EA013C0AD14FEA430CA4
:100E70007FEA6C5C02D152EA033C02D14FF00000E1
:100E800070474FF0010070474FEA410212F500121F
:100E900015D211D56FF47873B3EB625212D94FEAC1
:100EA000C12343F0004343EA505311F0004F23FAAB
:100EB00002F018BF404270474FF00000704750EA00
:100EC000013005D111F0004008BF6FF000407047BD
:100ED0004FF00000704700BF2DE9F04786468C4672
:100EE0000846089E154674461946002B40F0C180FE
:100EF0008542B2FA82F245D94AB1C2F1200300FA22
:100F000002FC954094402EFA03F343EA0C0C4FEA9E
:100F1000154EA8B2230CBCFBFEF80EFB18CC08FB48
:100F200000F943EA0C43994528D9EB1808F1FF373B
:100F300004D2994502D9A8F102072B44A3EB090377
:100F4000A4B2B3FBFEFC0EFB1C330CFB00F044EA26
:100F50000344A04214D92C190CF1FF3304D2A0424F
:100F600002D9ACF102032C44241A43EA07401EB113
:100F7000D440002334607360BDE8F0874746DDE766
:100F80006346F1E792BB431B01214FEA154EAFB216
:100F9000200CB3FBFEFC0EFB1C330CFB07F840EAF5
:100FA0000343984561D9EB180CF1FF3004D2984502
:100FB00002D9ACF102002B44A3EB0803A4B2B3FBAB
:100FC000FEFC0EFB1C330CFB07F744EA0344A7426C
:100FD0004DD92C190CF1FF3304D2A74202D9ACF140
:100FE00002032C44E41B43EA0040C0E7C2F12003A3
:100FF0009540944020FA03F12EFA03F34FEA154E80
:101000009040AFB20343B1FBFEFC0EFB1C10190C69
:101010000CFB07F841EA0041884522D969180CF118
:10102000FF3004D2884502D9ACF102002944A1EB7B
:1010300008019BB2B1FBFEFC0EFB1C110CFB07F779
:1010400043EA01439F420ED9EB180CF1FF3104D261
:101050009F4202D9ACF102012B44DB1B41EA004163
:1010600093E76046E3E76146F7E76046A4E7634637
:10107000B8E7834206D916B9002108467CE7C6E9DD
:1010800000E0F9E7B3FA83F78FB9834201D37245E1
:1010900008D8BEEB020460EB030301209C461EB996
:1010A000002169E73846FAE7C6E9004CF8E7C7F1DE
:1010B000200CBB400EFA07F522FA0CF42EFA0CF1C4
:1010C000BA401C4320FA0CF3B8404FEA14490143DC
:1010D0001FFA84FEB3FBF9F809FB18300B0C08FB70
:1010E0000EFA43EA00439A4540D9E31808F1FF306D
:1010F00004D29A4502D9A8F102002344A3EB0A03C3
:1011000089B2B3FBF9F809FB183308FB0EFE41EA7C
:1011100003418E452CD9611808F1FF3304D28E4566
:1011200002D9A8F10203214443EA0040A1EB0E01D9
:10113000A0FB02984145CE46434602D306D14D4519
:1011400004D20138B9EB020E68EB0403002EA7D0DD
:10115000B5EB0E0261EB030101FA0CFC22FA07F376
:10116000F9404CEA0303C6E9003199E74046C5E778
:101170004346D9E7034613F8012B002AFBD1181A7E
:1011800001387047000000002DE9F04D82B0824622
:101190008B46CDE900234FF0000800242E4D4CE093
:1011A000DDE90A23DDE90001FFF746FADDE90C235A
:1011B000FFF742FA06460F460022274B20462946F3
:1011C000FFF782F8DDE90E23FFF736FA0022234B02
:1011D000FFF77CF804460D4600221F4BDDE91201A3
:1011E000FFF772F8DDE91023FFF726FA02460B46F7
:1011F00020462946FFF76AF802460B463046394634
:10120000FFF71AFA02460B4650465946FFF73EFBD7
:10121000DDE91423FFF75AF806F02AFC06F028FC53
:101220000BA3D3E90023FFF74FF8DDE91623FFF7FF
:101230004BF804460D4608F10108B8F1020FAFDD86
:101240002046294602B0BDE8F08D00BFAFF3008014
:101250006666666666127140000039400000F03F25
:101260002DE9F04F93B080468946CDE9102301F077
:101270007FFCCDE90E014E4CB4F90400B4F9063000
:101280001844FFF76FF900224A4BFFF7D5F9824661
:101290008B46B4F90200FFF765F906460F46B4F92C
:1012A0000000FFF75FF90022434BFFF7EFFA044617
:1012B0000D4642464B46FFF7BFF902460B46304605
:1012C0003946FFF703F88046894600223A4B5046DC
:1012D0005946FFF7DBFA42464B46FFF7D7FA0022A2
:1012E000364BFFF7A9F980468946DDE910232046F1
:1012F0002946FFF7A1F902460B4630463946FEF76C
:10130000E5FF02460B4620462946FFF7BFFA0022BA
:101310002A4BFFF791F9DDE91E23FEF7D5FFDDE942
:101320001C23FFF7B3FA0022254BFEF7CFFF06463A
:101330000F461DA3D3E90023FEF7C8FF04460D4660
:1013400002460B46FFF778F902460B46204629462F
:10135000FFF772F902460B4620462946FFF76CF963
:10136000DDE92823CDE90C23CDE90A01CDE90867A1
:10137000DDE92623CDE90623DDE92423CDE9042395
:10138000DDE92223CDE90223DDE92023CDE9002395
:10139000DDE90E2340464946FFF7F6FE13B0BDE8EF
:1013A000F08F00BFAFF3008066666666661271401C
:1013B000BC8400200000E03F0000284000002041E5
:1013C00000003940000000002DE9F04F144697B0AE
:1013D0001D46476A8346239ECDE904457FB9102008
:1013E00006F02AFC0246CBF8240020B9A24BEA21E1
:1013F000A24807F043FEC0E901770760C760DBF849
:101400002430196859B15A680123584693404A60FC
:101410008B6007F059F9DBF8243000221A602B1E8C
:10142000B7BF23F00043002301220593A8BF336018
:10143000059F934BB8BF3260BB4319D142F20F7383
:10144000229A1360C7F31303234300F0E085249B23
:1014500053B98C4B21E08C4B08930833249A1360CA
:10146000089817B0BDE8F08F864B08930333F5E773
:10147000DDE90423CDE90C23DDE90C010022002382
:10148000FFF742FB804650B10123229A1360249B50
:1014900013B17E4B249A13607D4B0893E0E714ABA5
:1014A000C7F30A565846019315AB0093DDE90C23A8
:1014B00007F090FB0390002E78D00D9BA6F2FF362C
:1014C000CDF84C80C3F3130343F07F53DDE90C01E7
:1014D00043F44013194600226E4BFEF7F5FE60A35D
:1014E000D3E90023FFF7A8F85FA3D3E90023FEF7B1
:1014F000EDFE04460D463046FFF734F85CA3D3E911
:101500000023FFF799F802460B4620462946FEF7CE
:10151000DDFE04460D46FFF7B7FC00220746002318
:1015200020462946FFF7FAFA40B13846FFF71AF885
:1015300022462B46FFF7E8FA00B9013F162F54D890
:10154000554B03EBC703DDE90C01D3E90023FFF79B
:10155000E5FA00284BD0013F00231293149B9B1BFC
:101560005A1E4CBFC3F1010300230A9245BF0693E4
:10157000002306930A93002F3BDB0A9B0F973B4403
:101580000A9300230B93209B092B00F28980052BE3
:10159000C5BF043B002401242093209B023B032B66
:1015A00000F28980DFE803F02D3A3859DDE9146351
:1015B0001E4406F23243202BC9BFC3F14003C3F1DE
:1015C00020039F4006F21243D8BF04FA03F006F14D
:1015D000FF36C4BF24FA03F347EA0300FEF7B2FF65
:1015E0000122A1F1F873139274E70123B5E7129079
:1015F000B4E7069BDB1B06937B420B9300230F9300
:10160000C1E700230E93219B002B57DC0123994651
:101610001A46099321920CE00123F3E700230E936D
:10162000219BFB1803F1010909934B46012BB8BF1D
:101630000123DBF824000021042202F114059D425D
:1016400040D94160584606F0FFFF089000283CD181
:10165000124B02464FF4D571CAE60123DFE700BF03
:1016600061436F63A787D23FB3C8608B288AC63FA8
:10167000FB799F501344D33F5AC5010071C5010047
:101680000000F07F56C501004DC501002AC50100CC
:1016900029C501000000F83FF0BA0100E5C50100CE
:1016A000012400230E9420934FF0FF33002299462B
:1016B00009931223AEE701230E93F5E7219B994688
:1016C0000993B6E701315200B7E7DBF82430B9F1EE
:1016D0000E0F089A1A606FD8002C6DD0002F36DDDF
:1016E00007F00F02A04BF80503EBC203D3E9003467
:1016F000CDE910344FEA271417D59C4B04F00F04A2
:101700004FF00308D3E90823DDE90C01FFF7BEF829
:10171000CDE90401954D5CB9DDE91023DDE9040153
:10172000FFF7B4F8CDE904012BE04FF00208F1E730
:10173000E10709D508F10108DDE91001D5E9002329
:10174000FEF77AFFCDE9100164100835E3E700F0F9
:1017500007817C42844B854D4FF0020804F00F0254
:10176000241103EBC203DDE90C01D3E90023FEF7EA
:1017700063FF0023CDE90401002C40F0E580002B3D
:10178000D0D1129BDDE90445002B00F04C810022F2
:10179000774B20462946FFF7C1F9002800F0438126
:1017A000B9F1000F00F03F81099B002B00F3E480AA
:1017B000DDE90C34CDE90434159B002B02DB0E2F40
:1017C00040F342820E9A002A40F067820B9C00256B
:1017D000DDF81880B8F1000F0DD00A9B002B0ADD50
:1017E0004345069AA8BF4346D21AA8EB03080692BF
:1017F0000A9AD31A0A930B9B0BB30E9B002B00F093
:10180000A682002C00F0A18229462246584607F005
:1018100085F8039A01460546584606F0D5FF039918
:101820000646584606F050FF0B9B1B1B0B9300F01F
:1018300091820B9A3146584607F070F803900121C7
:10184000584606F0ABFF0F9B0446002B00F0848245
:101850001A460146584607F061F8209B0446012BC2
:1018600003DC049B002B00F07C820026236904EB40
:101870008303186909F0B5FDC0F120000F960A9B9B
:10188000184410F01F0000F09182C0F12003042BD7
:1018900040F38182C0F11C00069B03448044069300
:1018A0000A9B03440A93069B002B05DD1A46039905
:1018B000584607F08DF803900A9B002B05DD214662
:1018C0001A46584607F084F80446129B002B00F095
:1018D00076822146039809F0D3FD002880F26F82BA
:1018E00000230A220399584606F010FF0E9B7E1E25
:1018F0000390002B00F05C82002329460A22584600
:1019000006F004FF099B0546002B03DC209B022BFD
:1019100000F35E82B8F1000F05DD294642465846C5
:1019200007F056F805460F9B002B00F0D08269683F
:10193000584606F089FE0746002840F07F820D4B8E
:10194000024640F2EA2153E5E20706D508F1010814
:10195000D5E90023FEF770FE0123641008350BE77C
:101960004FF002080DE700BFF0BA0100C8BA01004D
:101970000000F03FE5C5010020460022AC4B29469F
:10198000FEF75AFE7E1E08F10108099CCDE904010C
:101990004046FEF7E7FDDDE90423FEF74DFEA54BCB
:1019A0000022FEF793FCA1F15073CDE910011193D1
:1019B000002C3BD10022A04BDDE90401FEF784FCA2
:1019C00002460B46CDE90423DDE91023FFF7C4F8F6
:1019D000002840F05781DDE9102101F10043DDE9E5
:1019E0000401FFF79BF800283FF4E2AE00242546EF
:1019F000219BDDF820A0DE434FF000082146584629
:101A000006F062FE002D00F0A980B8F1000F05D0AD
:101A1000A84503D04146584606F056FE294658468A
:101A200006F052FE9AE03E464C46B1E7834B03EB8C
:101A3000C40353E90201089B1C440E9B002B4AD0AF
:101A400002460B4600207E49FEF720FFDDE9102309
:101A5000FEF73AFCDDF820A0CDE91001DDE9040134
:101A6000FFF712FA0546FEF77DFD024630350B46BC
:101A7000DDE90401FEF728FC0AF8015B02460B468B
:101A8000CDE90401DDE91001FFF766F8002865D112
:101A900000206C49DDE90423FEF716FC02460B46E4
:101AA000DDE91001FFF758F8002840F00D81A2454C
:101AB00000F0EA8000225E4BDDE91001FEF7BCFD7C
:101AC00000225B4BCDE91001DDE90401FEF7B4FD16
:101AD000CDE90401C2E7DDE91023FEF7ADFDA04624
:101AE000DDF820A0CDE91001DDE90401FFF7CCF914
:101AF0000546FEF737FD024630350B46DDE90401A9
:101B0000FEF7E2FB0AF8015B02460B46A245CDE96F
:101B100004234FF0000223D1494BDDE91001FEF709
:101B2000D5FB02460B46DDE90401FFF715F8002856
:101B300040F0CA8000204249DDE91023FEF7C4FBD3
:101B400002460B46DDE90401FEF7E8FF70B1C2462C
:101B500008F1FF381AF8013C302BF8D0374655E031
:101B6000334BFEF769FDCDE90401BDE7DDE90C3437
:101B7000CDE90434159B002BFFF628AE0E2F3FF75E
:101B800025AE2E4B03EBC703D3E90034CDE9063471
:101B9000219B002B02DAB9F1000F64D0DDF820A000
:101BA000DDE90445DDE9062320462946FEF76EFE01
:101BB000FFF76AF90646FEF7D5FCDDE90623FEF7D6
:101BC0003BFD0246204606F130040B462946FEF74F
:101BD0007BFB0AF8014B089C02460B46AAEB040467
:101BE000A14540F08280FEF771FB04460D46DDE919
:101BF0000623FEF7B1FF002865D120462946DDE91E
:101C00000623FEF781FF08B1F3075CD40399584619
:101C100006F05AFD002301378AF80030229B1F602E
:101C2000249B002B3FF41CACC3F800A018E400BFB9
:101C30000000244000001C4000001440F0BA0100E5
:101C40000000E03F0000F03FA24B03EBC703D3E9E5
:101C50000034CDE90634219B002B9FDAB9F1000F47
:101C60009CDC7FF4C3AE00229B4BDDE90601FEF74E
:101C7000E3FCDDE90423FEF765FF044600287FF45A
:101C8000B5AE3E462546B4E0DDE90C34CDE904347A
:101C9000159B002B01DB0E2FD6DD209A012A36DCA6
:101CA000139A82B303F233430B9CDDF81880069A33
:101CB000012158461A4406920A9A1A440A9206F0DA
:101CC0006DFD054686E53E4653469A4613F8012DBE
:101CD000392A06D1089A9A42F7D13022089901365A
:101CE0000A701A7801321A7038E700227B4BFEF72F
:101CF000A3FC0022002304460D46FEF705FF002842
:101D00003FF450AF82E7149BC3F13603CCE709F1EF
:101D1000FF340B9BA34208DBB9F1000FA3EB0404D3
:101D20000EDBDDF818804B46C1E70B9B0F9AE31AD8
:101D30000B94DDF8188000241A444B460F92B6E746
:101D4000069BA3EB09080023B1E7039E71E50B9AFC
:101D5000039970E5039672E5209B012B17DC049B29
:101D6000ABB9059BC3F313039BB9059B23F0004656
:101D7000360D360536B1069B0126013306930A9BC4
:101D800001330A930F9B002B7FF470AD0F96012057
:101D900075E50026F6E73FF486AD1C33069A1A4433
:101DA000984406920A9A1A440A927CE50346F4E79C
:101DB000099B002B2BDC209B022B09DC27E0B9F1CF
:101DC000000F1DDC209B022B1ADD3E46CDF824902F
:101DD000099B002B7FF40CAE21460522584606F0E5
:101DE00095FC01460446039809F04AFB00287FF75A
:101DF000FFADDDF820A0312301360AF8013BFBE5F9
:101E00000E9B3E46CDF82490002B7FF483AD089FB7
:101E10002146039809F015FA089B00F13009099A48
:101E200007F8019BFB1A9A4240F3CB8000230A2259
:101E30000399584606F06AFC0390E9E72A6905F120
:101E40000C010C300232920009F0BAF80122394636
:101E5000584606F0BDFD089BA846054603F1010A59
:101E6000DDE9082313440A93049B03F001030B9359
:101E70000AF1FF3321460398069309F0E2F941463F
:101E8000099000F13009039809F0FAFA2A46214630
:101E90000746584606F008FEC268014602B3584697
:101EA00006F012FC002F3ADA01220399584606F098
:101EB0008FFD2146039009F0E3FA002803DC29D1C5
:101EC00019F0010F26D0B9F1390F1DD132E02846A3
:101ED000C1E700BFF0BA0100000014400000244038
:101EE0000E90039809F0CCFA0E990C90584606F023
:101EF000EBFB0C9A5ABB209B53B90B9B43B9B9F12E
:101F0000390F17D0002F05DD099B03F1310901E0DE
:101F1000002F2ADADDF818A00AF8019B6EE5209B55
:101F20003B4304D1049B03F00103002BBCD0B9F167
:101F3000390F36D1069F392307F8013BBA46013FD6
:101F40001AF8013C392B5AD001333B7056E5002F6B
:101F500006DB209B3B4306D1049B03F0010313B92E
:101F6000002AA1DCD6E7002AE1DC0A9B57460AF8E2
:101F7000019C53452ED000230A220399584606F0AF
:101F8000C5FBA84503904FF000034FF00A024146FD
:101F900058460BD106F0BAFB804605460AF1010A05
:101FA00066E7DDF818A009F10109B5E706F0AEFB18
:101FB0002946804600230A22584606F0A7FB05461C
:101FC000ECE7099B4FF00008002BCCBF1F46012710
:101FD000089B1F4401220399584606F0F9FC21464C
:101FE000039009F04DFA0028A8DC02D119F0010F86
:101FF000A4D1BA4617F8013D302BFAD0FEE4089B75
:10200000BB429BD13123089A01361370F6E4249B1E
:10201000002B7FF420AA014BFFF73FBA4DC501000A
:1020200008B500F03FF908E00B4B1B780BB100F04E
:1020300067FE4FF47A7007F0BDFA00F085F910B131
:10204000054B01221A7000F08FF90028ECD0024BEA
:1020500000221A70E8E700BFA086002070B5154680
:10206000002400E00134012C17DC0C4B2C2202FB75
:1020700004331B7A25FA03F313F0010FF2D0074E55
:1020800002FB0466012386F8203007F05AF9014666
:10209000B26A034806F0E0F9E4E770BD0080002072
:1020A000B8BB010010B591422AD22C2303FB01F1E9
:1020B0004418435CCBB1606808F089FD50B907F063
:1020C00040F90146A26A124806F0C6F9802384F856
:1020D000243014E007F035F90146A26A0D4806F0F5
:1020E000BBF9002384F8243009E007F02AF90146FF
:1020F000A26A094806F0B0F9802384F8243010BDA4
:1021000007F01FF90146054806F0A6F9F7E700BFFA
:10211000E4BB010010BC010034BC01005CBC010048
:10212000914226D210B52C2303FB01F14418435CE5
:1021300003B910BD6068217AE26823691A4307F089
:10214000CEF800280ADB07F0FCF80146A26A09482D
:1021500006F082F9002384F82430EAE707F0F1F86A
:102160000146A26A044806F077F9802384F82430F7
:10217000DFE77047BCBC010088BC010070B591422C
:1021800029D2044615462C2303FB01F14618435C73
:10219000C3B1337EBBB107F0D4F80146B26A11482F
:1021A00006F05AF97068317AF26907F084F8294626
:1021B000204607F0EAF80C490C4B4B6088607068C9
:1021C00007F0B5F870BD07F0BCF80146B26A0848E0
:1021D00006F042F9F6E707F0B4F80146054806F0C4
:1021E0003BF9EFE720BD0100B08400205D20010035
:1021F000ECBC01005CBC010070B584B004244FF657
:10220000FF7601E00134E4B214F0800F1AD101220C
:102210008DF803200DF103030193029202238DF840
:102220000C300A4883689D68234601A9A847002806
:10223000E8D107F0E2F801462246054806F00CF91D
:102240002646DFE7304604B070BD00BF4CB8010041
:102250006CBD010010B5104808F0B9FC044660B12F
:102260000D4883681B6804219847FFF7C5FF4FF6A8
:10227000FF73984208D0204610BD07F0BEF8014613
:10228000064806F0E9F8F6E707F0B7F80146044813
:1022900006F0E2F80024EEE74CB8010098BD01001A
:1022A000BCBD010010B5254C01220021204607F0DD
:1022B00067F801220021204607F05DF80222002184
:1022C0002046FFF7EFFE022200212046FFF728FFFD
:1022D000022200212046FFF751FF0122114620462D
:1022E00007F04EF801221146204607F044F802227A
:1022F00001212046FFF7D6FE022201212046FFF7EA
:102300000FFF022201212046FFF738FFFFF7A2FF4F
:102310000446642007F04EF944B100F0A9FA07F032
:1023200086F80146064806F097F810BD07F07FF8DA
:102330000146044806F090F8F7E700BF008000204F
:1023400018BE0100E0BD010010B50021054807F0EE
:1023500049F8044608B9204610BD0021014807F09D
:1023600035F8F8E70080002010B50121054807F096
:1023700039F8044608B9204610BD0121014807F08C
:1023800025F8F8E70080002010B582B00023ADF8F2
:1023900006300DF1060143F6FF7000F0EFFC041E5D
:1023A00003DBBDF8060002B010BD07F05AF8014685
:1023B0002246024806F050F8F3E700BF48BE01008D
:1023C00030B583B007F07BF80028FBD1022007F07E
:1023D0007BF80DF1060142F20C4000F0CFFC002822
:1023E000C0F23A8201A942F20D4000F0C7FC002879
:1023F000C0F23282BDF80400BDF8063043EA004066
:10240000FEF7B0F80022D84BFEF716F9FEF7AEFB48
:10241000D64D286007F025F804462868FEF7B4F882
:1024200002460B462146D24806F016F80DF1060189
:1024300042F20E4000F0A2FC0028C0F20D8201A979
:1024400042F20F4000F09AFC0028C0F20582BDF86D
:102450000400BDF8063043EA0040FEF783F800228E
:10246000C44BFEF7E9F8FEF781FB686006F0F9FF60
:1024700004466868FEF788F802460B462146BE48C7
:1024800005F0EAFF0DF1060142F2104000F076FC83
:102490000028C0F2E18101A942F2114000F06EFC77
:1024A0000028C0F2D981BDF80400BDF8063043EA27
:1024B0000040FEF757F80022B04BFEF7BDF8FEF7DC
:1024C00055FBA8604FF05251FDF746FEA86006F09C
:1024D000C8FF0446A868FEF757F802460B46214697
:1024E000A74805F0B9FF0DF1060142F2124000F0D5
:1024F00045FC0028C0F2B08101A942F2134000F06F
:102500003DFC0028C0F2A881BDF80400BDF80630EB
:1025100043EA0040FEF726F80022934BFEF78CF8C2
:10252000FEF724FBE86006F09CFF0446E868FEF72F
:102530002BF802460B462146924805F08DFF0DF11F
:10254000060142F2244000F019FC0028C0F2848108
:1025500001A942F2254000F011FC0028C0F27C8164
:10256000BDF80400BDF8063043EA0040FDF7FAFF6D
:102570000022854BFEF760F8FEF7F8FA286106F0B6
:1025800070FF04462869FDF7FFFF02460B4621460F
:102590007E4805F061FF0DF1060142F2264000F091
:1025A000EDFB0028C0F2588101A942F2274000F05B
:1025B000E5FB0028C0F25081BDF80400BDF80630EC
:1025C00043EA0040FDF7CEFF0022674BFEF734F8E8
:1025D000FEF7CCFA686106F044FF04466869FDF72F
:1025E000D3FF02460B462146694805F035FF0DF141
:1025F000060142F2284000F0C1FB0028C0F22C8105
:1026000001A942F2294000F0B9FB0028C0F2248160
:10261000BDF80400BDF8063043EA0040FEF7B0FB09
:102620002C46A8614FF05051FDF796FDA8614FF080
:102630005051FDF791FDA86106F013FF0546A06912
:10264000FDF7A2FF02460B462946524805F004FF5B
:102650000DF1060142F22A4000F090FB0028C0F282
:10266000FB8001A942F22B4000F088FB0028C0F259
:10267000F380BDF80400BDF8063043EA0040FDF7E2
:1026800071FF0022444BFDF7D7FFFEF76FFA254696
:10269000E0614FF05A51FDF75FFDE06106F0E1FEA9
:1026A0000446E869FDF770FF02460B4621463B48A9
:1026B00005F0D2FE0DF1060142F22C4000F05EFB67
:1026C0000028C0F2C98001A942F22D4000F056FB5B
:1026D0000028C0F2C180BDF80400BDF8063043EA0E
:1026E0000040FDF73FFF00222B4BFDF7A5FFFEF753
:1026F0003DFA28624FF05A51FDF72EFD286206F090
:10270000B0FE0446286AFDF73FFF02460B4621460D
:10271000234805F0A1FE0DF1060142F22E4000F023
:102720002DFB0028C0F29880BDF80600FDF71AFFC7
:1027300000221C4BFDF780FFFEF718FA686206F0D6
:1027400090FE0446686AFDF71FFF02460B462146CD
:10275000154805F081FE0DF1060142F22F4000F010
:102760000DFB002878DB21E00000703FC4840020CE
:1027700088BE01000000B03EA8BE01000000903EEF
:10278000C8BE0100E8BE01000000F03E08BF010025
:1027900028BF010048BF01000000D03E68BF010013
:1027A00088BF01000000503FA8BF0100BDF806002F
:1027B000FDF7D8FE0022294BFDF73EFFFEF7D6F9C4
:1027C000A86206F04EFE0446A86AFDF7DDFE02464A
:1027D0000B462146224805F03FFE0DF1060142F26C
:1027E000814000F0CBFA002836DBBDF80600FDF78B
:1027F000B9FE00221B4BFDF71FFFFEF7B7F9E86299
:1028000006F02FFE0446E86AFDF7BEFE02460B46C0
:102810002146154805F020FE0DF1060142F28240E6
:1028200000F0ACFA002817DBBDF80600FDF79AFEB1
:1028300000220C4BFDF700FFFEF798F9286306F025
:1028400010FE0446286BFDF79FFE02460B4621460C
:10285000064805F001FE002003B030BD0000503FE7
:10286000C8BF01000000103FE8BF010008C0010020
:1028700010B582B00DF1060142F20B4000F07EFA75
:1028800000283FDB9DF80630052B4AD101A942F212
:10289000D54000F073FA002834DBBDF804301D2B5E
:1028A00032D106F041FE214C207006F0DAFD0146DF
:1028B00022781F4805F0D0FDFFF782FD022006F0C8
:1028C00003FE00281EDB01A943F6FF7000F056FA54
:1028D000002817DBBDF8041021F0010143F6FF705A
:1028E00000F082FA00280DDBBDF8063003F4FE4349
:1028F000B3F5A06F18D006F0B4FD01460D4805F001
:10290000ABFD002002B010BD06F0ABFD0146BDF8E6
:1029100004305B003A22084805F09EFD4FF0FF307E
:10292000F0E76FF07A00EDE72220EBE75880002017
:1029300090C00100B0C0010028C0010000B583B004
:102940000DF1060143F6FF7000F018FA002805DBD0
:102950000B4B5B7833B103B05DF804FB084B0022EE
:102960005A70F5E70DF1060143F6FF7000F006FA24
:102970000028F0DBFFF77CFF014B01225A70EAE7E9
:102980005880002000B583B00DF1060144F2050027
:1029900000F0F4F900280FDBBDF90620084B1A807F
:1029A0000DF1060144F2080000F0E8F9002803DB0D
:1029B000BDF90620024B5A8003B05DF804FB00BF4E
:1029C000BC8400202DE9F84F8046894692469B46FC
:1029D000234CB4F90200FDF7C5FD06460F46B4F9D5
:1029E0000000FDF7BFFD00221E4BFDF74FFF044620
:1029F0000D4642464B46FDF71FFE02460B4630464B
:102A00003946FDF763FC02460B4620462946FDF792
:102A10003DFF0022144BFDF70FFEDDE90A23FDF711
:102A200053FC04460D46DDE90C23FDF72FFF52460B
:102A30005B46FDF74BFC06460F4622462B462046DA
:102A40002946FDF7F9FDDDE90E23FDF7F5FD024608
:102A50000B4630463946FDF739FCBDE8F88F00BF1C
:102A6000BC84002000002840000020412DE9F04FE8
:102A700087B0FFF787FF041E28DB164B5E6A1D68D0
:102A8000D3F804A0D3F808B0D868FDF77DFD8046E0
:102A900089463046FDF778FD06460F465846FDF755
:102AA00073FDCDE904015046FDF76EFDCDE902014D
:102AB0002846FDF769FDCDE9000142464B46304608
:102AC0003946FFF77FFF044BC3E90001204607B0FA
:102AD000BDE8F08FC48400207883002010B582B058
:102AE000012804D0022821D0002002B010BD00EB44
:102AF000400084B204F580400DF1060100B200F000
:102B00003DF90028F1DBBDF90620184B9A8004F549
:102B1000804001300DF1060100B200F02FF90028CD
:102B2000E3DBBDF90620114BDA80DEE700EB400065
:102B300084B204F580400DF1060100B200F01EF9E8
:102B40000028D2DBBDF90620084B9A8004F58040AE
:102B500001300DF1060100B200F010F90028C4DBCD
:102B6000BDF90620014BDA80BFE700BFBC8400201E
:102B700038B5074BD3E900450022002320462946FB
:102B8000FDF7C2FF08B10024024D2046294638BD9A
:102B9000708300200000F03F2DE9F04F95B0FFF763
:102BA0009DFF041E43DB244BD3F828B01A690F9213
:102BB0005D699E69DF6AD3F82080D3F81C90D3F852
:102BC00030A0586AFDF7E0FCCDE910015846FDF74A
:102BD000DBFCCDE912015046FDF7D6FCCDE90C0136
:102BE0004846FDF7D1FCCDE90A014046FDF7CCFC93
:102BF000CDE908013846FDF7C7FCCDE906013046AE
:102C0000FDF7C2FCCDE904012846FDF7BDFCCDE986
:102C100002010F98FDF7B8FCCDE90001DDE91023B2
:102C2000DDE91201FEF71CFB044BC3E9020120465B
:102C300015B0BDE8F08F00BFC48400207883002069
:102C400010F1740F03D00E4B00221A7170470C4A1A
:102C500013790133DBB21371312B00D8704710B5F3
:102C600014465388FA33538006F07AFC628841F2A6
:102C700088339A4200D010BDFA226280FBE700BF81
:102C80005880002010B582B0FFF758FE06F031FCE6
:102C900000282EDB0DF1060143F6FF7000F06EF800
:102CA000002826DBBDF8061021F0010143F6FF7075
:102CB00000F09AF800281CDB64235C1E002B12DD58
:102CC0000DF1060143F6FF7000F058F8BDF806302C
:102CD00013F0010F07D1094B588800F1640106F089
:102CE00037FC2346E9E7002C05DBBDF80600C0F3FE
:102CF000840002B010BD6FF07300FAE75880002026
:102D000010B5FFF7BFFF0446FFF79AFF002C00DA6B
:102D100010BDFFF7ABFE002817DB06F0A2FB014653
:102D2000114BD3E90023114805F096FB2046FFF72D
:102D300033FF002810DB06F094FB01460A4BD3E971
:102D400002230B4805F088FBE2E706F08AFB014608
:102D5000084805F081FBE9E706F083FB01460648D9
:102D600005F07AFBD4E700BF78830020F4C00100AF
:102D70004CC10100D0C0010028C1010030B589B0AC
:102D80000C460023ADF81C3002128DF81C208DF883
:102D90001D0007AA0192022202928DF80C300491C4
:102DA000059207238DF818300D4883689D683A23F3
:102DB00001A9A84758B92288130A43EA02232380AD
:102DC000084A137803F0FE03137009B030BD054ABA
:102DD000137843F0010313704FF0FF30F5E700BFA5
:102DE0004CB80100A186002010B588B003128DF800
:102DF0001C308DF81D000B0A8DF818308DF8191055
:102E000007AB00930222019200238DF8083006AB35
:102E1000039304928DF814200A4883689C683A232F
:102E20006946A04730B9084A137803F0FD031370D0
:102E300008B010BD044A137843F0020313704FF03A
:102E4000FF30F5E74CB80100A186002008B5024B21
:102E50001B68984708BD00BF60800020014B1860C8
:102E6000704700BF6080002000B583B002460B466B
:102E700000210091024800F089F903B05DF804FBDD
:102E80004D2E01002DE9F04383B004460846154657
:102E9000238B13F0080F05D103F0070600230093DE
:102EA000019355E0012909D043F02003238385F3E2
:102EB0001188BFF36F8F03B0BDE8F08343F01003B8
:102EC0002383F4E7204606F0CFFB43E0D4F81490C8
:102ED0004A466946204606F0E0FB4FF00008238B87
:102EE00003F00707B74269D0A268002A66D0012222
:102EF00043F00803238385F31188BFF36F8F002A03
:102F000064D1009B2BB14B463A466946204606F0F9
:102F10003DFCB8F1000F02D034492046C0474FF0C5
:102F20002003EFF3118583F31288BFF36F8F238B98
:102F300023F008032383238B13F0100F4CD023F0CE
:102F4000100323830120268B06F007060028AED04D
:102F50000228B7D00028AAD0013804282AD801A313
:102F600053F820F0CD2E0100B52F0100792F01007C
:102F70008D2F0100A12F01002369D3F800800621C5
:102F8000204606F047FB4FF00009A8E72369D3F875
:102F900004800421204606F03DFB4FF000099EE727
:102FA0002369D3F808800521204606F033FB4FF053
:102FB000000994E74FF00008C14690E7009A0AB173
:102FC000002295E7B8F1000F92D1B4E74A4639469E
:102FD000204606F027FB94E713F0200F04D023F0DF
:102FE000200323830220AEE70020ACE7BB9701005B
:102FF00084460268002006E000EB8000013203EB0B
:103000004003A3F1300013780349C95C11F0040FA9
:10301000F2D1CCF80020704719C40100844608465C
:10302000012226E09CF8003043F004038CF80030C5
:10303000F2B101301CE09CF8003043F008038CF83A
:103040000030F5E79CF8003043F010038CF80030B6
:10305000EEE79CF8003043F020038CF80030E7E7FF
:103060009CF8003043F040038CF80030E0E7002289
:1030700042B30378203B102BF9D801A151F823F07B
:10308000453001006F3001006F3001005330010006
:103090006F3001006F3001006F3001006F300100B0
:1030A0006F3001006F3001006F30010037300100D8
:1030B0006F300100253001006F3001006F300100DA
:1030C000613001009CF8003003F04403442B00D031
:1030D00070479CF800306FF386138CF80030F7E7E8
:1030E0002DE9F84F05460C46934699460A9FD0783D
:1030F000254B13F800A00AF0030A06F089FD0646E6
:1031000015E0BAF1010F20D0D2B25732D2B207F88F
:10311000012D3246434628462146FDF785FEB5423D
:1031200074F1000415D34F4513D905460C464FF0F2
:1031300000083246434628462146FDF775FE092A17
:10314000DFD8D2B23032D2B2E1E7D2B23732D2B225
:10315000DDE79BF8003013F0200F03D0082E04D0D9
:10316000102E09D03846BDE8F88F9BF8023043F0A6
:1031700008038BF80230F5E79BF8023043F01003A8
:103180008BF80230EEE700BF19C401002DE9F04FC3
:1031900091B006460D4691460393002499F800002D
:1031A000002800F0B982252808D009F10109294634
:1031B000B0470028C0F2B1820134EFE70023049346
:1031C00005930693079308930993494606A806F0CA
:1031D000FDFC02909DF8193013F0010F00F097806C
:1031E000039B1A1D03921F68002FC0F288809DF870
:1031F000193013F0040F00F09C80039B1A1D0392FA
:10320000D3F800A0BAF1000FC0F28A800023079320
:1032100008939DF81A3003F007039DF81910C1F3C5
:10322000C301012B00F08E80022B00F0D380042B11
:1032300000F02481032B00F03B819DF8188018F0EA
:10324000030B40F03B819DF81B30253B532B00F2D4
:10325000CA81DFE813F04001C801C801C801C801F4
:10326000C801C801C801C801C801C801C801C80116
:10327000C801C801C801C801C801C801C801C80106
:10328000C801C801C801C801C801C801C801C801F6
:10329000C801C801C801C801C801C801C801C801E6
:1032A000C801C801C801C801C801C801C801C801D6
:1032B000C801C801C801C801C801C8018101C8010D
:1032C000C801C801C801C801C801C801C801C801B6
:1032D000C8015E016701C801C801C801C8016701D2
:1032E000C801C801C801C801BD018101A101C8010F
:1032F000C8014D01C8018101C801C80181019DF8C3
:10330000183043F004038DF818307F426FE79DF9C1
:103310001830002B02DB4FF0FF3768E7079F66E7A6
:103320009DF819306FF341038DF819304FF0FF3AD3
:103330006CE713F0020F02D0DDF820A066E74FF033
:10334000FF3A63E7CB1E042B04D8DFE803F00B1D24
:1033500029353500039B1A1D03921B68DA17049365
:10336000059206E0039B1A1D03921B68DA1704936B
:103370000592012928D002297FF45FAFBDF91030F2
:10338000DA170493059258E7039B073323F00703EA
:1033900003F108020392D3E90023CDE90423E8E70F
:1033A000039B073323F0070303F108020392D3E9D9
:1033B0000023CDE90423DCE7039B1A1D03921B685D
:1033C000DA1704930592D4E79DF91030DA170493C5
:1033D000059232E7CB1E042B04D8DFE803F00B1F65
:1033E00035414100039B1A1D03921B68049300237F
:1033F00005931EE09DF81B30632B07D0039B1A1D1D
:1034000003921B6804930023059312E0039B1A1D8B
:1034100003921B680493002305930AE0039B073380
:1034200023F0070303F108020392D3E90023CDE957
:10343000042301291CD002297FF4FFAEBDF810300F
:10344000049300230593F8E6039B073323F0070357
:1034500003F108020392D3E90023CDE90423E8E74E
:10346000039B1A1D03921B68049300230593E0E756
:103470009DF81030049300230593DEE608290BD055
:10348000039B073323F0070303F108020392D3E9F8
:103490000023CDE90423D0E6039B073323F0070381
:1034A00003F108020392D3E90023CDE90423C4E623
:1034B000039B1A1D03921B680493BEE6029F3B46C2
:1034C0004A462946304606F0D7FB0028C0F225813F
:1034D0000444B94662E629462520B0470028C0F2D8
:1034E0001C810134D8460DF13E0A4FF000097FE0FF
:1034F000DDF81090BAF1000F07DB5146484607F09F
:1035000094FE09EB000AD84672E04846FDF732FE09
:10351000F7E7049B8DF82830D8460DF1290A0DF104
:10352000280965E018F0080F05D118F0100804D03C
:103530004FF0200801E04FF02B08049A059B002B68
:1035400002DB0492059308E0524263EB43030492CA
:1035500005934FF02D0800E0D8460DF13E0300938F
:103560000AAB06AADDE90401FFF7BAFD8146BAF10C
:10357000000F6CDB0DF13E03A3EB09039DF818204F
:103580006FF386128DF818209A4563D9AAEB0303CE
:1035900007930DF13E0A2BE0049828B9D846DFF8CE
:1035A00080A1AAF1050923E00DF13E0300930AABC7
:1035B00006AA0021FFF794FD81469DF81A3043F0DA
:1035C00010038DF81A3078238DF81B30D846CEE7DB
:1035D0002246049906A806F030FBD8460DF13E0AB3
:1035E0004FF0000904E0D8460DF13E0A4FF0000903
:1035F000B9F1000F00F08D80AAEB0902B8F1000FBD
:1036000000D001329DF81A1011F0100F25D00232AF
:10361000079B134411F0400F01D0089A1344002F68
:1036200031DDFF1A9DF8183013F0040F2BD113F081
:10363000400F17D0B8F1000F17D029464046B047C9
:1036400000286ADB0134D8464FF0300B0FE00DF153
:103650003E0ACDE70DF13E0ACAE711F0080FD7D0B8
:103660000132D5E74FF0200B01E04FF0300B3B4625
:103670005F1E002B07DD29465846B04700284CDB6B
:1036800001343B46F4E7B8F1000F05D02946404627
:10369000B047002841DB01349DF81A30C3F3001213
:1036A000C3F3C0031A4305D029463020B047002891
:1036B00033DB01349DF81A3013F0100F06D0294681
:1036C0009DF81B00B047002827DB0134079B03F15E
:1036D000FF38002B07DD29463020B04700281CDBCF
:1036E00001344346F3E753464A462946304606F03E
:1036F000C3FA002811DB0444002F07DD29462020EF
:10370000B047002809DB0134013FF5E7DDF80890F8
:1037100044E5DDF8089041E5204611B0BDE8F08FA2
:1037200085C1010068B108B5064A074B1B68074907
:10373000A1FB03139B0C00FB03F042F0010398472D
:1037400008BD7047C0BA0100B480002083DE1B436F
:1037500007F005B970B505464FF02003EFF3118669
:1037600083F31288BFF36F8F0E4B1C680DE0A268C5
:103770003AB10D4B1B7D03EB43030C4911F82300B9
:1037800090472346246804B123B12CB1002DEED01C
:103790006268EDE71C46F8E786F31188BFF36F8F88
:1037A00070BD00BF108500205C86002004850020CD
:1037B00008B5064B23B14178007806F0A5FA08BD9C
:1037C000002383F31188BFF36F8FF8E7099D010091
:1037D00070B50E4B1C7D21460D4806F09BFA00B9D2
:1037E00070BD650004EB44000A4E06EB8000FFF755
:1037F000DFFF0020FFF7AEFF2B19990006EB8303D4
:10380000002272505A609A60EAE700BF5C8600208E
:103810001885002004850020F8B50546384B1C7D2E
:103820004FF02003EFF3118683F31288BFF36F8FFD
:1038300004EB4402334B13F82230002B39D0324BC7
:1038400003EB820C2F4F4FEA820E07EB820393E8C3
:1038500007008CE80700002307F80E3086F3118874
:10386000BFF36F8F04EB4403274A12F82330002B79
:1038700044D0B5F1FF3F2BD103F0F6FB0120FFF759
:1038800069FF2146214806F05DFA214B5BB11E4AD3
:1038900004EB440302EB830304EB4404597812F86D
:1038A000240006F029FAFFF793FF03F0DFFD012063
:1038B000F8BD0146204600F031F80028CED004EBD8
:1038C0004401114B03EB810307C883E80700C5E7F8
:1038D00004EB44020C4B03EB82039868410CC003D9
:1038E0000C4BC0180C4A4FF0000341F10001FDF7EA
:1038F0009BFA0121281A07F02AFBBDE70020D7E731
:103900005C860020F88400200485002018850020B3
:10391000F99C01003F420F0040420F002DE9F041A9
:1039200082B00E4601A900F045F8441E24B207E01B
:10393000B6F1FF3F33D08044B04530D9013C24B2CA
:10394000002C2BDB019B04EB440203EB820569781E
:1039500013F8220006F005FA0028EFD16868410C40
:10396000C003114FC019114A4FF0000341F100018B
:10397000FDF75AFA8046AB68590CDB03D8190B4A9D
:103980004FF0000341F10001FDF74EFA084B1B68B0
:10399000B3F1FF3FCCD08342CAD8CFE700252846F9
:1039A00002B0BDE8F08100BF3F420F0040420F006F
:1039B0006480002008B9024B0B600020704700BFF4
:1039C00088C10100014910220A60704710ED00E033
:1039D00072B6404080F31188BFF36F8FBFF34F8FF3
:1039E00030BF62B6BFF36F8F704700BF72B64940F9
:1039F00081F3118820BF80F3118862B6704700BF41
:103A0000002807DB00F01F02400901239340024A0F
:103A100042F82030704700BF00E100E0002808DBDA
:103A20004901C9B200F1604000F5614080F800131F
:103A3000704700F00F004901C9B2014B195470479B
:103A400014ED00E04209054B53F8222000F01F005E
:103A5000012303FA00F01040704700BF00E100E0CE
:103A600030BFFFF7FDBF00BF08B50B4B0B4A22F07C
:103A70007F029A60BFF34F8FBFF36F8FD3F8882018
:103A800022F47002C3F8882003F008F803F07AFEED
:103A900000F0F2F903F05EF800ED00E00000010034
:103AA000094A9368586709490968996708494B6842
:103AB00043F080534B60002383F31188BFF36F8F73
:103AC0009368986F704700BF5C86002054C3010064
:103AD00000ED00E015498A6882F87DE04FF0300083
:103AE0001044EFF3098C80E8F01F202080F3128847
:103AF000BFF36F8F0E4F4FF00066CA698A603E6059
:103B000092F97DE0506F0023536780F3118802F132
:103B1000300090E8F01F8CF3098802F1000004B532
:103B200006F042F9BDE80440704700005C860020C2
:103B300004ED00E01EF0040F0CBFEFF30880EFF37C
:103B40000980816911F8021C0229FFD001B506F035
:103B50000EF901BD10B4A2F120040F4942F8081C6F
:103B600021F0010142F8081C42F8203C019B42F878
:103B70001C3C029B42F8183C039B42F8143C4FF05B
:103B8000807342F8043C046500234367C367BC2389
:103B900080F87D3010BC704701960100084B98609A
:103BA000436E83F30B88104681F30988002163B6C6
:103BB00081F31188BFF36F8F0022002305F020FDF1
:103BC0005C86002001B572B60B4A906900281EBFC2
:103BD0000021916107F04BF862B6EFF30580A0F188
:103BE00010004FEAC0000549014409C99847BDE8E3
:103BF00001400349084700005C86002064B80100CA
:103C0000053C0100044B9968D869884203D00349F8
:103C10004FF080520A6070475C86002004ED00E09F
:103C200010B51446184B9A6A9A6A9B6A13F0020FF1
:103C30000BD0154B5A6B9B6A13F0800F05D021B146
:103C4000114A936A23F0800393620F4B9A6A9A6A2F
:103C50009B6A13F0100F01D10B4B9B6A0A4B9B6AB6
:103C600013F0200F04D0084A536A23F40053536220
:103C7000054A936A43F0FF039362012106F098F826
:103C80002070002010BD00BF00ED00E010B514460C
:103C9000124B9A6A9A6A9B6A13F4007F0BD00F4BFF
:103CA0009A6B9B6A13F4004F05D021B10B4A936ABB
:103CB00023F400439362094B9A6A9B6A13F4807F52
:103CC00001D1064B9B6A054A936A43F47F43936292
:103CD000012106F06DF82070002010BD00ED00E01D
:103CE0000A4B9A6A9A6A986A10F480100BD1074BB3
:103CF0009A6A9A6A9A6A9A6A9A6A6FEA02426FEABA
:103D000012429A6270470220F1E700BF00ED00E026
:103D100081690D4B5A6942F480725A61BFF34F8F2B
:103D2000BFF36F8F31F8021C5A6922F480725A6116
:103D3000BFF34F8FBFF36F8F4DF60273994201D0DF
:103D4000002070470120704700ED00E038B50546BF
:103D500000230B701A4BD86A10F002002DD10C46CC
:103D6000DB6A002B2ADB164BD86A10F0804025D086
:103D70002846FFF7CDFF08B128681FE0104B9B6A6B
:103D800013F0FF0F0DD10E4B986A10F47F400ED147
:103D90000B4B9B6AB3F5803F10D32846FFF7A0FF7B
:103DA0000CE0224601212846FFF73AFF06E02246B2
:103DB00001212846FFF76AFF00E0002038BD00BF60
:103DC00000ED00E030B58BB01F4B5D68C5F3080512
:103DD000002383F31188BFF36F8F0DF1260306F0E4
:103DE0000FF804460DF12702294605F0E6FF9DF87D
:103DF00027300BB10BB030BD05460DF1040C206827
:103E00006168A268E368ACE80F0020696169A26993
:103E1000E369ACE80F009DF826304BB1089BC3F373
:103E200008025AB96FEA53236FEA4323089305E067
:103E3000089B23F4FF7323F00103089301A928468C
:103E400005F091FFD6E700BF00ED00E0044B5A6992
:103E500042F010025A615A6942F480625A61704716
:103E600000ED00E0EFF30880EFF3098101B5724641
:103E7000FFF7A8FF01BD00BF002207E003F1604388
:103E800003F56143202183F800130132442A09DC41
:103E900053B2002BF2DA03F00F0303491944202335
:103EA0000B76F2E7704700BFFCEC00E0002080F3E7
:103EB0001488BFF36F8F002080F30A8880F30B888B
:103EC000FFF746FC00200E490860BFF34F8F0D48F6
:103ED00080F3088800F040F8202080F311880A4819
:103EE0004FF40061401880F30988EFF31480022139
:103EF000084380F31488BFF36F8FFFF7B5FD000010
:103F000094ED00E0E8930020A8860020BFF34F8FD7
:103F10000549CA6802F4E062044B1343CB60BFF367
:103F20004F8F00BFFDE700BF00ED00E00400FA0581
:103F3000084BD3F89000C0F30720002306E0054AA1
:103F4000C2F898300021C2F8A01001338342F6DB9A
:103F5000704700BF00ED00E010B572B6002484F396
:103F60001388FFF7E5FF234608E003F120010E4A1E
:103F70004FF0FF3042F821000133DBB20F2BF4D9B0
:103F8000002308E003F16001074A4FF0FF3042F8D8
:103F900021000133DBB20F2BF4D962B6BFF34F8F90
:103FA000BFF36F8F10BD00BF00E100E008B50A4B02
:103FB0009B68834202D003F0ADFB08BDEFF305839D
:103FC000002BF8D0054B5A6842F080525A605A6A6A
:103FD00022F400425A62EEE75C86002000ED00E029
:103FE00010B584B00A4C23460A4A01210A4805F05C
:103FF000A0FF0023019302930393084B0193E41A5B
:104000000294012101A805F098FF04B010BD00BF83
:10401000000008200080002088C10100708300207B
:10402000024B034AC3F8C020704700BF00ED00E018
:10403000AAFF4400034BC3F89800C3F89C10C3F8D0
:10404000A020704700ED00E00E4BC3F89800C3F8C5
:104050009800D3F89C000A7A60F304020A72D3F83D
:10406000A020C2F34202087A62F347100872D3F824
:104070009C2022F01F020A60D3F8A03023F01F0317
:10408000CB60704700ED00E02DE9F04F87B081462E
:10409000009101931446002734E0D84565D12946A4
:1040A000C0B205F016FF2CE0584AC2F89860D2F86A
:1040B0009C3003F01F0321F01F010B43C2F89C301A
:1040C0002946E0B205F005FF044610F1160F00F096
:1040D0009680013415E0013B4C49C1F89860D1F855
:1040E000A02002F01F0223F01F031343C1F8A030E9
:1040F0002946E0B205F0EDFE044610F1160F7ED021
:1041000001340137009B9F4279DA07EB47054FEAFC
:10411000850A09EB85056E68002EF2D0019B23B15C
:10412000284605F0B9FE002865D0314659F80A0046
:1041300005F0EEFE064610F1160F5FD0A04262DADF
:10414000324BC3F89800D3F89C2022F01F02C3F82A
:104150009800D3F8A03043F01F0859F80A30696876
:10416000194401F1FF3B9A4297D09A429CD0D8451E
:10417000B1D0013B2549C1F89860D1F8A02002F0E8
:104180001F0223F01F031343C1F8A0302946E0B2F9
:1041900005F09FFE044610F1160F30D001301B4B86
:1041A000C3F89860D3F89C109DF8102061F30402C6
:1041B0008DF81020D3F8A030C3F34203D2B263F3DA
:1041C00047128DF8102059F80A306A681344029398
:1041D00023F01F03A8EB0B084344013B23F01F030C
:1041E000059302A9C0B205F069FE044610F1160F4E
:1041F00005D0013485E76FF0150400E00446204641
:1042000007B0BDE8F08F6FF01504F8E700ED00E0AF
:1042100010B5034C01232278FFF736FF207010BD44
:10422000A286002070B505460E46002400E0013449
:10423000A6421EDD04EB44039A0005EB8303596894
:104240000029F4D0A85805F063FE04EB84030B4A60
:1042500042F8230010F1160F0CD0094B1B7898423E
:1042600009DA04EB840302EB83010431FFF7ECFE6F
:10427000DDE7002070BD6FF01500FBE71C85002016
:10428000A2860020044B0522C3F89420BFF34F8F71
:10429000BFF36F8F704700BF00ED00E0BFF35F8F8B
:1042A000024B0022C3F89420704700BF00ED00E0ED
:1042B00038B50E4B1D68082D15D8FFF7EFFFFFF737
:1042C000AFFE002407E0094B596801EB04112046BA
:1042D00005F0CEFD0134A542F5D8054B1D70FFF762
:1042E000D1FF002038BD4FF0FF30FBE79CC101003B
:1042F000A2860020014B1860704700BF6C80002030
:1043000070B506460D46002400E00134AC4208DAE0
:10431000054B1B68984730550A2801D00D28F4D169
:104320000134204670BD00BF68800020F8B5054606
:104330000F46002404E0094B1B683078984701348D
:10434000BC4208DA2E192B5D0A2BF4D1034B1B68F3
:104350000D209847EFE73846F8BD00BF6C8000207D
:1043600008B505220249012005F0F8FDFEE700BF6F
:1043700094C101000246084B1968084BC8180A444A
:10438000C3F1005303F5E0239A4202D2024B1A60B4
:1043900070474FF0FF30704730850020E8930020D1
:1043A00000487047C0850020034BC01A8010034BA3
:1043B00003FB00F0704700BF48850020B76DDBB6F7
:1043C00038B505460C46FFF7EFFF0146402203488B
:1043D00005F0A5FE01462846A04738BDD4B7010028
:1043E00030B583B005460C46FFF7DEFF014640239B
:1043F00000932346054A064805F0ABFE011E01DB8B
:1044000003B030BD2846A047FAE700BF9BA10100DA
:10441000D4B7010008B5052815D8DFE800F0031A65
:104420001414151000210D4805F004FE836813F0E4
:10443000070F08D10021094805F05FFE03E00221C3
:10444000064805F05AFE08BD0321044805F055FE54
:10445000F9E70121014805F050FEF4E7D4B7010067
:1044600010B582B04FF02003EFF3118483F312886C
:10447000BFF36F8F144A136843F00201116013F009
:10448000010F09D1002384F31188BFF36F8FABB9FB
:1044900005F08BFE02B010BD0DF1070201210B48A3
:1044A00005F08EFD9DF80730012B01D00023EAE7CF
:1044B000FFF776FF05F00EFE0123E4E70021044834
:1044C00005F01BFEE6E700BFE88500200050004035
:1044D000D4B7010008B5084BD3E8EF2F22F0020152
:1044E000C3E8E01F0028F7D112F0010F00D008BD8B
:1044F00005F06FFEFBE700BFE885002070B582B0D5
:104500000546012806D12E4BD3F81C3403F00303D3
:10451000022B34D006F096FB044610B9294B1B78C9
:1045200073B94FF02003EFF3118683F31288BFF3C2
:104530006F8F012484B9224B0222C3F808230BE0B9
:104540000026F7E7ECB13046FFF750FA1C4BD3F8E2
:104550001835DBB2012B18D00DF1070200211848E5
:1045600005F02EFD0028EDD09DF80730022B01D07C
:10457000012DE7D1F4B186F31188BFF36F8F02B03C
:1045800070BD012005F039FEE0E70D4BD3F8043192
:10459000002BE1D00A4B0022C3F80421D3F80421F8
:1045A0000222C3F81825084A2021C2F880110122EE
:1045B0009A60D1E7024B0222C3F80423DFE700BF71
:1045C00000500040A586002000E100E000B585B065
:1045D000CDF800D0CDF804D000230293012303933B
:1045E0006B46074A05F0D1FD002805DB4FF48042F9
:1045F0000023684602F07EFC05B05DF804FB00BFB6
:1046000027A2010070B5064600220121052005F011
:10461000B9FB114801F0B0F8104B984219D101F0E4
:10462000BDF80024032C12D82146304605F002FDC7
:1046300005462146304605F008FD094905F0CBF84E
:10464000002805DB0123AB601C44E4B2EAE700204C
:1046500070BD6FF00400FBE7154401000000AD0BD6
:10466000D4C1010010B504460E4B0121D3E8EF2F51
:10467000C3E8E01F0028F9D11AB1631E012B0DD940
:1046800010BD094805F0E1FC084900234B608B6030
:10469000CB6001238B6005F0BBF8EEE72046FFF707
:1046A0002DFFEDE744850020D4B7010034850020BC
:1046B00010B504460A2806D0E1B2064883685B6854
:1046C0009847204610BD034883685B680D219847D2
:1046D000F2E700BF34B8010010B5044C2046FFF7E4
:1046E00009FE2046FEF7BAFB10BD00BFB14601002F
:1046F00008B5054806F06BFA18B1FFF7EDFF00208A
:1047000008BD6FF01200FBE734B8010028B10128A2
:1047100001D103487047002070470248704700BF2E
:10472000ECB7010004B80100F0B585B00E4619469B
:1047300043681B7B06F01F0545EA4315B2F5001FD1
:1047400022D007461446002301930293104605F039
:1047500044FE8DF804007B689968F14011F0010F68
:1047600002D1B4F1A07F14D0002301AA1946284633
:1047700001F066FB1A4B98422FD10121284601F027
:10478000C3FC002005B0F0BD284601F0EFFC00207E
:10479000F8E705F01F036A09012A12D0114A803395
:1047A00052F8233013F0010FDED10DF10F0128462E
:1047B00001F04EFC0C4B984205D00DF10F03029313
:1047C000D2E70A4AEBE70DF10F0001F095FC044B2C
:1047D0009842F2D06FF00B00D4E76FF01500D1E7EC
:1047E0000000AD0B002584400400AD0B0028844080
:1047F0002DE9F04186B00E461446D0F8048098F8B2
:104800000C3001F01F0545EA43150DF1170128464C
:1048100001F01EFC074614F4403F39D000210391FB
:1048200004910B4603AA284601F00AFB324B98423A
:104830005FD19F423CD014F4003F47D00DF10301FB
:10484000204605F057FD074648BB9DF803308DF81C
:10485000043014F4803F0CBF012300238DF8053091
:10486000204605F08AFD8DF8060014F4002F24D0B0
:10487000D8F804200123B3409360002201A9284600
:1048800001F074FB1C4B984209D06FF0150706E04D
:10489000284601F08DFC184B9F4204D00027384673
:1048A00006B0BDE8F0819DF8170001F01DFCF5E7AA
:1048B0009DF8170001F018FCBDE714F4802FDCD040
:1048C000D8F804200123B340D360D6E7204605F092
:1048D00054FD8DF8080000231A4602A9284601F06D
:1048E000AFFA054B984201D10027D8E76FF01507C2
:1048F000D5E76FF01507D2E70000AD0B08B501F062
:10490000E9FB08B1002008BD01F0BAFB084B984252
:104910000AD10021074801F095FB002205212F2034
:1049200005F030FA0020EEE76FF00400EBE700BF7F
:104930000000AD0B13A4010070B544682368D3F8E0
:104940000855D3F80C65204601F084FF314628460F
:1049500001F0B8FF05460021206A05F090FD2046D1
:1049600001F068FF034B9D4201D1002070BD6FF044
:104970000F00FBE70000AD0B2DE9F04F8FB0824632
:104980008846914601690C46049142680292486A41
:104990000190128B0692002509950A950B950C95AE
:1049A0000D958DF825304FF0FF324FF0FF3308465C
:1049B00002F0A0FA04F11003184605930022002328
:1049C00002F098FA2E462C460395CDF81CA04AE03A
:1049D000002C69D04FF0000A20466A68A118DDF863
:1049E00018C0614500F2B38013F0010F05D158F8EB
:1049F0000B10019B184406F0E3FA6B6823449CB249
:104A0000BAF1000F2ED1002C6AD158F80B300C935C
:104A10006B680A932B7A03F001028DF8242013F0BF
:104A2000020F61D0002209A9029801F031FF4E4B1C
:104A300098425BD14FF480420023059802F05AFA65
:104A4000039000285DD1049B1A6A474B9A4240F0BC
:104A500086802B7A13F0010F03D00C9B019A9A42A7
:104A600058D000243E464E456AD206EB46054FEA32
:104A7000850B08EB85052B7A13F0080F5DD1771CA9
:104A80004F45A5D213F0020FA2D107EB470208EB66
:104A90008202127A12F0040F9AD15A4012F0010FDA
:104AA00096D14FF0010A97E713F0010F12D158F891
:104AB0000B1001F06043B3F1005F0ED06A68029BF7
:104AC0005B8B9A4247D8019806F07AFAAC884FF08F
:104AD000000A95E74FF0000A92E74FF0000A8FE7CF
:104AE000019B0C930A9495E720229CE70B33984294
:104AF00003D06FF00403039322E06FF00F030393DE
:104B00001EE0DDF81CA05046FFF716FF6FF004030F
:104B1000039315E0154607E0A41AA4B2291958F822
:104B2000000006F04DFA013E06EB4603980008EB44
:104B300083035A689442EFD293E76FF0850303939F
:104B4000049802F0B5F903980FB0BDE8F08F6FF04C
:104B50001B030393F4E76FF015030393F0E76FF083
:104B600004030393ECE700BF0000AD0B08B5037826
:104B7000012B0CD0022B0DD013B1084B0B6201E0BE
:104B8000074B0B6201F1100002F092F908BD054BD2
:104B90000B62F7E7044B0B62F4E700BF0100AD0BBB
:104BA0000000AD0B0100AE0B0200AE0B38B544683F
:104BB0000569E36998470021206A05F060FC002838
:104BC0000DDB2B46084A04F10801204601F0E8FD00
:104BD000064B984204D1204601F02CFE002038BD3F
:104BE0006FF00400FBE700BF6D4B01000000AD0B50
:104BF00043681A68B1F5164F6FD03AD8B1F5165F11
:104C00006ED00AD9B1F5E14F75D024D947F61223F9
:104C100099422BD14FF4000313E0B1F5966F61D0A8
:104C200007D9B1F5166F63D0B1F5965F10D13C4B43
:104C300007E0B1F5967F58D0B1F5167F05D14FF456
:104C40001C33C2F82435002070476FF01500704700
:104C50006FF015007047B1F5615F4ED0B1F5964F1A
:104C600001D1304BEDE76FF0150070476FF0150084
:104C70007047B1F5613F42D009D9B1F5612F46D0F7
:104C80001FD9294B994248D14FF08053D9E7B1F54C
:104C9000963F37D005D9B1F5E13F0FD14FF0EB7317
:104CA000CFE74DF6C02399422ED0B1F5614F02D126
:104CB0004FF46B03C5E76FF0150070476FF01500F8
:104CC00070471A4B994225D0B1F5E12F02D14FF030
:104CD000E863B6E76FF0150070474FF41D03B0E7C7
:104CE000134BAEE74FF49E23ABE74FF4A033A8E796
:104CF0004FF41D23A5E70F4BA3E70F4BA1E74FF0A0
:104D00006C739EE70D4B9CE74FF4650399E74FF0FA
:104D1000706396E74FF0806393E76FF0150070477C
:104D200000B0130000A04E0040420F0090D00300DE
:104D30000050270000C0750000F03A0000903A01D2
:104D4000F8B505460E46076905F07CFF10B9124B11
:104D50001B7883B94FF02003EFF3118483F312889B
:104D6000BFF36F8F284605F055FC40B984F31188D6
:104D7000BFF36F8FEEE7284605F0B1FC04463B69B0
:104D80001E7001223969284605F05EFC84F3118803
:104D9000BFF36F8FF8BD00BFA586002038B505466C
:104DA0000C4601F1180000F0D5FD0A4B98420ED1D7
:104DB000237E43F00043C5F8A031C5F88C30227E35
:104DC00001239340044AC2F80435002038BD6FF037
:104DD0000400FBE70000AD0B0070014021F07F41B3
:104DE00000F5A870014B43F82010704700500140B7
:104DF00000F5A870014B53F82000704700500140A7
:104E00004FF480338340024AC2F84433704700BFF6
:104E1000005001404FF480338340024AC2F84833C7
:104E2000704700BF00500140014BD3F804057047A4
:104E30000050014010B5012383406FEA030C0C4A77
:104E4000D2E8EF1F01EA0C0EC2E8E4EF002CF7D124
:104E50004FF4803282400748C0F80823BFF35F8FC9
:104E6000BFF36F8F0B4214BF0120002010BD00BFA5
:104E7000188600200050014038B5044605F0EBFCD0
:104E800005464FF48033A340144AD2F8042313425A
:104E900005D10024284605F0E7FC204638BD012353
:104EA000A340DB430E4AD2E8EF1F01EA0300C2E849
:104EB000EC0FBCF1000FF6D149B904F150039B008F
:104EC0009BB203F1804303F5A8331B6823B120464E
:104ED00005F0B2FC0124DDE70024DBE700500140CF
:104EE0001486002001B97047012383400D4AD2E89F
:104EF000EFCF4CEA030CC2E8E1CF0029F7D14FF421
:104F000080338340084AC2F80433084BD3E8AF3FEC
:104F1000C34013F0010FE6D0054B4FF40012C3F865
:104F20000021E0E718860020005001401486002090
:104F300000E100E02DE9F843074614461E461046FE
:104F4000194605F085FC0546154B1A68A01A1C6029
:104F50005E60A5F50013B3F5400F09D3002402F0FD
:104F6000FDFC3846FFF744FFA8420ED0BDE8F883A9
:104F70000C4B1B681A0A1B0615EB030842F10009CB
:104F8000094BC3E900890124E9E71CB13846FFF762
:104F900037FFEBE74FF400013846FFF71FFFF5E757
:104FA000988300201C860020A083002038B50D4B7C
:104FB0001C68250A2406BFF35F8FFFF735FF034601
:104FC000001945F10001B3F5801F0AD2064BD3E961
:104FD0000023904271EB030303D210F1807041F182
:104FE000000138BD1C860020A0830020F8B50646CD
:104FF00014461D461046194605F02AFC0746FFF7E1
:10500000D5FFA04271EB05031DD2201A65EB01010B
:10501000194B984271F100012BD2184B03EB061388
:10502000D3E90223AB4208BFA24216D0394630462C
:1050300005F01FFC394605F0FBFB001945F10003A4
:1050400004461D4609E00123B3400D4AD2E8EF0FA4
:105050001843C2E8E10F0029F8D1084B320103EBF5
:105060000616C6E9024506999950079B7360002011
:10507000F8BD6FF01500FBE70100000188830020F8
:105080001486002030B583B000231D4AC2F80835CD
:10509000002B24DD1A4C0225C4F80453194B4FF49D
:1050A0000012C3F8802100220121152004F06AFEBD
:1050B000152004F062FE0123A3602360124A1360EE
:1050C00000240194114B0093114A0023204605F05F
:1050D0000BFC2846FFF7C6FA204603B030BD0D4A48
:1050E00002EB03124FF0FF304FF0FF31C2E9020133
:1050F0004FF480329A400249C1F804230133C7E7D4
:105100000050014000E100E018860020354F01000A
:10511000FFFF7F00888300202DE9F04782B004461E
:10512000FFF7AAFE10B902B0BDE8F087FFF73EFF17
:1051300082460D4605F08FFB0646134B03EB041326
:10514000D3E90289C24575EB09050BD2002530462B
:1051500005F08AFB002DE6D0009742464B462046DC
:10516000A847E0E7084A230102EB0411D5584F682D
:105170000020D0504FF0FF324FF0FF33C1E902233F
:105180002046FFF747FEE2E78883002010B50E4B6C
:10519000D3F8043313F0020F0DD00B4BD3F80431C6
:1051A0004BB1094B0022C3F80421D3F80431074A5C
:1051B0001368013313600024002C00DD10BD20466D
:1051C000FFF7AAFF0134F7E7005001401C860020DA
:1051D00010B582B0B0F1FF3F06D0012806DDB0F572
:1051E000000F05DA441E04E00F48F8E7002400E051
:1051F0000D4CFFF7DBFE0D4B1A685B68801AB0F5AB
:10520000000F00D300242044411CB1F5000F00D34F
:1052100005490020521801900549009143F100030F
:1052200005F062FB02B010BDFFFF7F0098830020F5
:10523000354F010008B5FFF7B9FE024B1B68C01AD5
:1052400008BD00BF9883002030B400F01F0C400957
:10525000012818D00D4D0CF1800055F8204004F0C5
:10526000E04C41EA420141EA83039DF8082043EA09
:1052700002239DF80C2043EA024343EA0C0345F85D
:10528000203030BC7047024DE5E700BF0025844068
:105290000028844059B900F01F014009012804D0BA
:1052A000094A01238B40D3607047084AF9E700F0B0
:1052B0001F014009012804D0034A01238B40936059
:1052C0007047024AF9E700BF002584400028844067
:1052D0002DE9F04F85B007468B469046002422E02A
:1052E0004FF0FF352CE0C8F80C55012603963146E7
:1052F0007F2D16D0B1F1FF3F40F00E8157F80A30F4
:1053000013F4005F02D001260022039200220192D2
:10531000CDF80090C3F3C113324603992846FFF736
:1053200093FF0134E4B25C4580F0FA804FEA840ACE
:1053300057F82430C3F3432903F07F057F2DCFD0E6
:105340001B0C222B00F2EE8001A252F823F000BFCA
:10535000E7520100DD530100EB530100F753010058
:1053600005540100135401001F540100255501008C
:105370002555010025550100255501002D5401003A
:105380004154010025550100255501002555010016
:105390002555010025550100255501002555010021
:1053A00025550100255501005554010067540100A1
:1053B000795401008B540100255501002555010049
:1053C000255501009D540100AD540100B954010060
:1053D000C9540100D9540100E9540100C8F814551A
:1053E000002603964FF0FF3182E7C8F808550126E2
:1053F000039631467CE7C8F81055002603964FF017
:10540000FF3175E7C8F8085500260123039331469C
:105410006EE7C8F80C5501260396002168E7C8F826
:105420001055002603964FF0FF3161E7C8F8085584
:10543000B9F1000F60D0002603964FF0FF3157E717
:10544000C8F80C55B9F1000F5ED0002603964FF056
:10545000FF314DE7C8F8605557F80A10C1F38031A5
:105460000126039644E7C8F8645557F80A10C1F3BB
:105470008031012603963BE7C8F8685557F80A10B3
:10548000C1F380310126039632E7C8F86C5557F80E
:105490000A10C1F380310126039629E7C8F8245584
:1054A0000126002303934FF0FF3121E7C8F8285568
:1054B0000126039631461BE7C8F830550126002324
:1054C00003934FF0FF3113E7C8F83455012600234A
:1054D00003934FF0FF310BE7C8F83855012600233E
:1054E00003934FF0FF3103E7C8F83C550126002332
:1054F00003934FF0FF31FBE64E46CDF80C904FF092
:10550000FF314FF00609F3E64E46CDF80C904FF010
:10551000FF314FF00609EBE62846FFF7BBFEEDE64C
:10552000002001E06FF0850005B0BDE8F08F00BFFE
:105530002DE9F041A2B00446884615461E46114B9F
:105540001F783FB14FF0FF324FF0FF330E4801F0AC
:10555000EDFB80B9684604F07CFC289B3246294666
:105560004046A0470446684604F074FC2FB9204624
:1055700022B0BDE8F0811F24F9E7034801F05AFC8E
:10558000F5E700BFA58600205C830020F0B595B04C
:1055900005460C4607AF342632460021384605F052
:1055A0001CFD3F230793059706960395049414B9B1
:1055B000002015B0F0BD0123019303AA009205AAB3
:1055C0000021024800F004F8F3E700BF00010040AA
:1055D00010B582B0059C01F5004CBCF5803F14D29B
:1055E000FF2B15D8FF2C16D81B021FFA83FC4CEAA0
:1055F0000141E4B2049B0093134641EA04020146D0
:105600000648FFF795FF02B010BD6FF08000FAE783
:105610006FF08000F7E76FF08000F4E721BC000036
:10562000044BD3F8582502F00302034BD340034A3E
:1056300013607047005000400020A107B480002094
:1056400010B50468B4FA84F3C3F11F035FFA83FC56
:10565000002B12DB012202FA03F324EA0303D0E851
:10566000EF2FA24204D1C0E8EE3FBEF1000FF6D109
:10567000E7D181F800C0024810BD0248FCE700BF36
:105680000000AD0B0200AD0B0368CB4013F0010F1F
:1056900011D100B5026801238B401343D0E8EFCF4E
:1056A000944504D1C0E8EE3FBEF1000FF6D1F1D130
:1056B00002485DF804FB0248704700BF0000AD0BD4
:1056C0000400AD0B70B582B00646032850D8DFE861
:1056D00000F00216212E274B0222C3F808230022D5
:1056E000C3F80421D3F804210122DA6001238DF8E4
:1056F00007309E4228D0002542F210742CE01D4B4A
:105700000122C3F808230021C3F80011D3F80011C7
:105710005A60EBE7174B4FF40072C3F808230022DE
:10572000C3F82421D3F8242101225A62DEE7114B69
:105730004FF48072C3F808230022C3F82021D3F865
:1057400020210122DA61D1E70DF10705D4E701201C
:1057500005F00CF9013C0BD02A463146054805F00E
:1057600009F928B1002DF2D09DF80730012BEED0B9
:1057700002B070BD00500040054B1B792BB9044BA3
:10578000186001221A71034870470348704700BF30
:10579000208600200000AD0B0C00AD0B08B505F015
:1057A00025F905F021F9044BC3F818050122C3F8C7
:1057B0001425C3F8802508BD00500040032869D88F
:1057C000DFE800F002434E5B00B583B0324AD2F806
:1057D000183403F003038DF80730D2F8183413F4AB
:1057E000803F1BD12C4BD3F8143413F0010F1AD186
:1057F00005F0FAF88DF807009DF80720264BC3F84E
:1058000018250022C3F80421D3F804210222C3F88A
:10581000042301229A6003B05DF804FB0DF1070038
:1058200005F0EEF8E8E71C4BD3F81C3403F0030353
:105830008DF807300DF1070005F0E2F80028DBD005
:10584000154B0222C3F80423E5E7134B0022C3F8EB
:105850000021D3F800210122C3F804231A60704705
:105860000D4B0022C3F82421D3F824214FF40072F9
:10587000C3F8042301221A627047074B0022C3F8C1
:105880002021D3F820214FF48072C3F80423012291
:105890009A617047704700BF0050004008B52B4B1D
:1058A000D3F800315BB1294B0020C3F80001D3F8D5
:1058B00000210122C3F80823254B1B689847234B7E
:1058C000D3F80431ABB1214B0022C3F80421D3F843
:1058D0000421D3F8182402F00302D3F81834012A63
:1058E0002CD01A4B0222C3F80823194B1B68012045
:1058F0009847164BD3F820316BB1144B0022C3F8F4
:105900002021D3F820214FF48072C3F80823104BD4
:105910001B68042098470D4BD3F824316BB10B4B17
:105920000022C3F82421D3F824214FF40072C3F8D5
:105930000823074B1B680520984708BD034B02222C
:10594000C3F8182501229A60D3E700BF0050004039
:105950002086002008B501460148FFF771FE08BD0A
:10596000B8800020F0B51C46059F069E00F01F0C75
:105970004009012834D0274D0CF1800355F823301D
:1059800081B3012082B34FF0020E40EA0E0074B3DF
:105990004FF00C0E40EA0E0067B34FF4706E40EA11
:1059A0000E0056B34FF4403E40EA0E0023EA0000DA
:1059B00031B30B7832B312785200134324B32278F8
:1059C0009200134317B33A781202134306B33278A6
:1059D0001204134303430CF1800C45F82C30F0BD46
:1059E0000D4DC9E70020CDE74FF0000ECDE74FF099
:1059F000000ECFE74FF0000ED1E74FF0000ED3E7D7
:105A00000023D7E70022D8E70022DAE70022DCE70C
:105A10000022DEE7002584400028844000F01F02B9
:105A2000400901280AD00649803251F8223003F09B
:105A3000E04343F0020341F8223070470149F3E7A5
:105A4000002584400028844000B583B084468E46FB
:105A50000C4B93E8030002AB03E90300634609E043
:105A600002A901EB830151F8081C086A42F8040BF3
:105A7000086201330CEB0E009842F1D803B05DF8D8
:105A800004FB00BFB0BA01000830034B33F810002C
:105A900000F00100704700BFBC8000200830034BBD
:105AA00033F81000C0F34010704700BFBC800020E6
:105AB0000830044B33F8100010F01C0018BF012010
:105AC000704700BFBC8000200830034B33F8100043
:105AD000C0F34000704700BFBC8000200830024B7C
